:020000040800F2
:10000000382F0020392D0008892C00088B2C00087F
:100010008F2C0008932C0008972C0008000000008B
:100020000000000000000000000000009B2C000801
:100030009D2C00080000000067150008A12C000896
:10004000532D0008532D0008532D0008532D000890
:10005000532D0008532D0008532D0008532D000880
:10006000532D0008532D0008532D0008532D000870
:10007000532D0008532D0008532D0008532D000860
:10008000532D0008532D0008532D0008532D000850
:10009000532D0008532D0008532D0008532D000840
:1000A000532D0008532D0008532D0008532D000830
:1000B000532D0008532D0008532D0008532D000820
:1000C000532D0008532D0008532D0008532D000810
:1000D000532D0008B12C0008532D0008532D0008A3
:1000E000532D0008532D0008532D0008532D0008F0
:1000F000532D0008532D0008532D0008532D0008E0
:10010000532D0008532D0008532D0008532D0008CF
:10011000532D0008532D0008532D0008DD2C000836
:10012000532D0008532D0008532D0008532D0008AF
:10013000DFF80CD004F01EFF00480047612C0008D7
:10014000382F0020002477E0714800F09AFE00214B
:100150004FF4784000F09BFE6E4803886E4802889A
:100160000021084600F030FC00F08EFE00256BA157
:10017000284600F0FCFD6D4800F083FE4FF4FC6063
:1001800000F091FE6A484078032802D0062840D14A
:1001900027E000240EE000F077FEC088611C484391
:1001A00085B2644830F8142063A1284600F08EFE22
:1001B000601CC4B25E49887800EBD071B4EB610F6B
:1001C000E9DB5F48007858B100F05EFEC088A11CF2
:1001D000484385B25A4802785AA1284600F076FE74
:1001E00018E000F051FEC5885248428852A12846C6
:1001F00000F06CFE5248007850B100F045FEC08817
:100200004004050C4E4802784EA1284600F05EFEE0
:1002100000E000BF00BF4FF4FA7300221146104601
:1002200002F078FC3B480088803883B23A48028864
:100230008021002000F0C8FB86E708B507E06A4689
:1002400000214248006801F009FF01F080F8F6E75C
:1002500008B50020009024E06A4600213C48006870
:1002600001F0FCFE04463B48008840F2FF718842E2
:1002700017DA39480068032813D83648008818B9B7
:100280000121202003F0F7FC20782949314A128807
:10029000885430480088401C2E49088000202E4990
:1002A0000860D9E707E000F0BCFF002302221946EE
:1002B000184602F02FFCF6E710B50446002001F0C6
:1002C00040FE23490860002001F03BFE1F49086002
:1002D0000423224A0021AFF2330002F0A9F80523DB
:1002E0001F4A0021AFF2970002F0A2F806231D4A30
:1002F0000021AFF2B90002F09BF807231A4A00214F
:10030000AFF2BF1002F094F8FF2002F03DF910BDEB
:100310000C000020260000202400002053544152ED
:10032000542052554E4E494E470000001400002004
:10033000AC0D0020AC1500205245473A00000000EB
:10034000360000204558435F433A00000400002077
:10035000000000200800002080000020E8010020AC
:100360002803002068040020A805002030B51C48A0
:1003700000686422B0FBF2F1B1F1807F00D31DE090
:1003800021F07F40401E4FF0E022506150170F22B5
:10039000002807DA13071D0E124B00F00F04241F6C
:1003A0001D5503E013071C0E0F4B1C5400BF00200B
:1003B0004FF0E02290610720106100BF30BD10B502
:1003C00002F03BFDFFF7D2FF00F0ACFD01F037F883
:1003D00000F09FFA00F0EBFD062000F023FA10BDBC
:1003E0008400002018ED00E000E400E001B502E028
:1003F0000098401E009000980028F9D108BD08B56B
:100400000121602003F02AFC03208DF8020018204F
:100410008DF803004FF48040ADF800006946FE48B7
:1004200003F060F94FF40040ADF800006946FA4867
:1004300003F058F90120ADF800006946F64803F0D2
:1004400051F90220ADF800006946F34803F04AF97B
:100450008020ADF800006946F04803F043F94FF4FE
:100460008070ADF800006946EC4803F03BF94FF4AA
:100470000070ADF800006946E84803F033F94FF426
:100480008060ADF800006946E44803F02BF94FF4B2
:100490000060ADF800006946E04803F023F94FF42E
:1004A0008050ADF800006946DC4803F01BF94FF4BA
:1004B0000050ADF800006946D84803F013F94FF436
:1004C0008040ADF800006946D44803F00BF94FF4C2
:1004D0000040ADF800006946D04803F003F94FF43E
:1004E0008070ADF800006946CB4803F0FBF84FF48C
:1004F0000070ADF800006946C74803F0F3F84FF408
:100500008060ADF800006946C34803F0EBF80320B3
:100510008DF8020018208DF803001020ADF80000BF
:100520006946BD4803F0DEF82020ADF800006946BA
:10053000B94803F0D7F88020ADF800006946B64806
:1005400003F0D0F84FF40060ADF800006946B248FF
:1005500003F0C8F810208DF8030003208DF8020086
:100560000220ADF800006946AC4803F0BBF810204B
:100570008DF8030003208DF802004FF48050ADF891
:1005800000006946A44803F0ADF808BD00B597B077
:100590000121080203F055FB012001900420039083
:1005A0008006079000200290049005900690089025
:1005B000099008200A9010200B9000200C900E90BB
:1005C0000F9010904FF480501190002012901390D3
:1005D000149001A81590169008A802F069FD012159
:1005E000002002F0CDFE17B000BD10B5CF2004F002
:1005F000D9FC002004F0DAFC812004F0D7FC302084
:1006000004F0D4FCED2004F0CDFC642004F0CEFC1A
:10061000032004F0CBFC122004F0C8FC812004F07D
:10062000C5FCE82004F0BEFC852004F0BFFC1020CF
:1006300004F0BCFC782004F0B9FCCB2004F0B2FC40
:10064000392004F0B3FC2C2004F0B0FC002004F0AE
:10065000ADFC342004F0AAFC022004F0A7FCF72033
:1006600004F0A0FC202004F0A1FCEA2004F09AFC95
:10067000002004F09BFC002004F098FCB12004F062
:1006800091FC002004F092FC1B2004F08FFCB620AB
:1006900004F088FC0A2004F089FCA22004F086FC07
:1006A000C02004F07FFC352004F080FCC12004F061
:1006B00079FC112004F07AFCC52004F073FC45207D
:1006C00004F074FC452004F071FCC72004F06AFCBF
:1006D000A22004F06BFCF22004F064FC002004F083
:1006E00065FC262004F05EFC012004F05FFCE020A5
:1006F00004F058FC0F2004F059FC262004F056FCAE
:10070000242004F053FC0B2004F050FC0E2004F0D5
:100710004DFC092004F04AFC542004F047FCA820BA
:1007200004F044FC462004F041FC0C2004F03EFCA4
:10073000172004F03BFC092004F038FC0F2004F0E3
:1007400035FC072004F032FC002004F02FFCE120EF
:1007500004F028FC002004F029FC192004F026FCF9
:100760001B2004F023FC042004F020FC102004F0E3
:100770001DFC072004F01AFC2A2004F017FC472077
:1007800004F014FC392004F011FC032004F00EFCEA
:10079000062004F00BFC062004F008FC302004F0D6
:1007A00005FC382004F002FC0F2004F0FFFB36208B
:1007B00004F0F8FBC82004F0F9FB2A2004F0F2FB57
:1007C000002004F0F3FB002004F0F0FB002004F014
:1007D000EDFBEF2004F0EAFB2B2004F0E3FB00200C
:1007E00004F0E4FB002004F0E1FB012004F0DEFB58
:1007F0003F2004F0DBFB3A2004F0D4FB552004F04A
:10080000D5FB112004F0CEFB0548FFF7EFFD2920B2
:1008100004F0C8FB10BD00000014014000180140A6
:10082000FCBF020010B50446072C00DD10BDFE48D9
:100830000470204604EBD0714910A4EB410139B992
:10084000F020FA4908804FF4A070F949088006E0CA
:100850004FF4A070F5490880F020F5490880362053
:1008600004F0A0FB082141EA441004F09FFB2A2079
:1008700004F098FB002004F099FB002004F096FBA4
:10088000EA490988491EC1F3072004F08FFBE749B4
:100890000978491EC8B204F089FB2B2004F082FBC2
:1008A000002004F083FB002004F080FBE04909886D
:1008B000491EC1F3072004F079FBDD490978491E80
:1008C000C8B204F073FB2C2004F06CFB00BFADE752
:1008D00010B50221D74802F0B4FF40F6FF20FFF721
:1008E00085FD0221D34802F0AAFF40F6FF20FFF762
:1008F0007DFD10BD10B504462CB14FF48051CE489B
:1009000002F09FFF04E04FF48051CB4802F097FFC4
:1009100010BD10B5FFF773FDFFF738FE0120FFF79C
:10092000E9FFFFF7D5FFFFF760FEBF480078FFF74C
:1009300079FF10BD2DE9F04104460D4616461F46CD
:100940002A2004F02FFB201204F030FBE0B204F068
:100950002DFBA119491EC1F30F2004F027FBA1199B
:10096000491EC8B204F022FB2B2004F01BFB281206
:1009700004F01CFBE8B204F019FBE919491EC1F3AD
:100980000F2004F013FBE919491EC8B204F00EFB56
:10099000BDE8F08170B504460D4601231A4629468C
:1009A0002046FFF7C7FF70BD70B504460D46002610
:1009B0002C2004F0F7FA00BF03E0284604F0F6FA12
:1009C000761CA642F9D370BD2DE9F04106460F46CC
:1009D00014461D462B46224639463046FFF7AAFFED
:1009E00004FB05F095490988FFF7DEFFBDE8F081BB
:1009F00070B505460C468D48008885420CDA8C4857
:100A00000088844208DA21462846FFF7C3FF8C4855
:100A100001880120FFF7C8FF70BD70B500240025D4
:100A200000262E2004F0BEFA04F0B6FA044604F0C4
:100A3000B3FA044604F0B0FA064604F0ADFA0546EF
:100A4000E012C002A91240EA411040EAE62070BD5F
:100A500070B504460D4629462046FFF79BFFFFF779
:100A6000DCFF0646304670BD2DE9FF4F83B081465E
:100A70004FF0000AD3460598A0EB090504990698A3
:100A8000461ACDF8049004980090002D01DD01274E
:100A900005E00DB9002702E04FF0FF376D42002E50
:100AA00002DD4FF0010806E016B94FF0000802E041
:100AB0004FF0FF387642B54201DD2C4600E0344667
:100AC0000020029019E0DDE90010FFF791FFAA4431
:100AD000B344A24505DDAAEB040A0198384480B26C
:100AE0000190A34505DDABEB040B0098404480B2B8
:100AF00000900298401C80B20290611C02988842CB
:100B0000E1DD07B0BDE8F08F2DE9F04104460D4668
:100B100016461F46DDF81880B8F1000F0CD03B4692
:100B2000324629462046FFF705FF06FB07F04449F9
:100B30000988FFF739FF27E0A019401E82B22B4633
:100B400029462046FFF790FFE819401E83B2A019FE
:100B5000401E82B2E819401E81B22046FFF784FF92
:100B6000E819401E83B2224629462046FFF77CFF43
:100B7000E919491E8BB2A119491E8AB2A119491E51
:100B800088B22946FFF770FFBDE8F0812DE9F05FDC
:100B900005460E4691469B4600240FFA89F703202E
:100BA000A0EB49000FFA80FA97E0BBF1000F50D09C
:100BB000A0464BE006EB080291B22A1990B2FFF76B
:100BC00017FF06EB080291B22A1B90B2FFF710FF45
:100BD000321991B2A5EB080290B2FFF709FF321B60
:100BE00091B2A5EB080290B2FFF702FFA6EB080254
:100BF00091B22A1B90B2FFF7FBFEA6EB080291B25E
:100C00002A1990B2FFF7F4FE321B91B205EB0802ED
:100C100090B2FFF7EDFE321991B205EB080290B2E7
:100C2000FFF7E6FE0EE00000280000202400002070
:100C3000260000200018014000140140320000206E
:100C40003000002008F101000FFA80F8B845B1DD4E
:100C50002FE0F21991B22A1990B2FFF7C9FEF219EA
:100C600091B22A1B90B2FFF7C3FE321991B2EA1B70
:100C700090B2FFF7BDFE321B91B2EA1B90B2FFF7B4
:100C8000B7FEF21B91B22A1B90B2FFF7B1FEF21B26
:100C900091B22A1990B2FFF7ABFE321B91B2EA195A
:100CA00090B2FFF7A5FE321991B2EA1990B2FFF7A0
:100CB0009FFE601C04B2BAF1000F05DAA000801D8F
:100CC00050440FFA80FA07E0E01B80000A305044DD
:100CD0000FFA80FA781E07B200BFBC427FF765AFFB
:100CE000BDE8F09F2DE9F05F804689461646A6F1E3
:100CF00020001FFA80FA834909688988814A1268AE
:100D0000D28801FB02F0C11700EB5171C1F3C70794
:100D10007C48006800680AFB070B7A480068C388B3
:100D200078480068828849464046FFF703FE2C2039
:100D300004F038F9002416E0002510E01BF8040048
:100D400080212941084020B16F48008804F02EF925
:100D500003E06E48008804F029F9681CC5B2082D2C
:100D6000ECDB601CC4B2BC42E6DBBDE8F09F70B5B2
:100D700004460D46002624E0304662490968898809
:100D8000084463490988884205DD00265D480068FB
:100D9000C088204484B220465A490968C98808445A
:100DA0005C490988884201DD002600242A78214612
:100DB0003046FFF797FF6D1C52480068808830442A
:100DC00086B228780028D7D170BD70B505460E468A
:100DD000144624E028464B490968898808444C4950
:100DE0000988884205DD002546480068C0883044EF
:100DF00086B2304643490968C9880844454909888C
:100E0000884201DD00250026227831462846FFF77A
:100E100069FF641C3B4800688088284485B22078BC
:100E20000028D7D170BD70B505460E46144624E0A3
:100E3000304634490968C9880844364909888842D7
:100E400005DD00262F4800688088284485B22846A2
:100E50002C490968898808442D490988884201DDA0
:100E600000250026227831462846FFF73BFF641C08
:100E700024480068C088304486B220780028D7D142
:100E800070BD2049086070471E48006870471E4AC0
:100E900010801E4A118070471B4A128802801B4A2C
:100EA00012880A80704718490880704717490880DF
:100EB000704770B50446FFF7E7FFC5882B46144816
:100EC000028821460020FFF77FFD70BD70B59AB003
:100ED00006460C4615461048FFF7D3FF4FF4FC605A
:100EE000FFF7E1FF2B4622460CA101A804F064F8AD
:100EF0003046FFF7DEFF01A93046FFF738FF1AB092
:100F000070BD00002C0000203000002032000020C6
:100F100024000020260000201400002025732564F2
:100F20002000000008B50121082002F097FE2020D3
:100F3000ADF8000010208DF8030003208DF80200AA
:100F400069460F4802F0CEFB0120ADF8000069466B
:100F50000B4802F0C7FB0220ADF8000069460848C4
:100F600002F0C0FB2021064802F069FC0121044880
:100F700002F065FC0221024802F061FC08BD00009D
:100F8000000C014008B54FF4E06001F0D7FF2520C8
:100F90008DF8000000208DF8010003208DF802007C
:100FA00001208DF80300684601F0CDFF08BD00B5B3
:100FB00085B00121042002F051FE0121880302F0D6
:100FC0004DFE4FF40070ADF8100018208DF813009E
:100FD00003208DF8120004A9544802F083FB4FF45B
:100FE0008060ADF8100004208DF8130004A94F486C
:100FF00002F078FB4FF4165000900020ADF804008A
:101000004FF40050ADF806000020ADF80800ADF830
:101010000C000C20ADF80A006946454803F0D3FDEA
:10102000FFF7B0FF012240F22551414803F063FE73
:1010300001213F4803F053FE05B000BD70B50446E2
:101040000D462946204603F0B7FE00BF802120460A
:1010500003F020FF0028F9D070BD2DE9F0410746CC
:101060000D461646002405E0295D3846FFF7E6FFE9
:10107000601CC4B2B442F7DB00BF4021384603F025
:1010800009FF0028F9D0BDE8F08170B506460C468E
:10109000002500BF615D3046FFF7D0FF6D1C605D2D
:1010A0000028F7D100BF4021304603F0F3FE0028AE
:1010B000F9D070BD2DE9F04105460C46260AE7B28D
:1010C0003146284603F078FE00BF8021284603F011
:1010D000E1FE0028F9D03946284603F06DFE00BF36
:1010E0008021284603F0D6FE0028F9D0BDE8F08123
:1010F00070B504460D46E1B20D4803F05DFE00BF39
:1011000080210B4803F0C6FE0028F9D0204670BDB0
:1011100010B5044600BF2021054803F0BBFE00289F
:10112000F9D0034803F04CFE10BD00000008014058
:101130000038014070B502460C46FF25FF2309E048
:1011400012F8010B80EA03010648405C80EA0503BF
:101150000548455C201EA4F10106B4B2F0D143EA73
:10116000052070BD228D0008228E00082DE9F04177
:1011700006460C46154600278A480670062089490F
:10118000487020128870CC70281208714D710621A9
:101190008448FFF7CFFF074682498F713812C87124
:1011A00008228148FFF759FFBDE8F0812DE9F041A1
:1011B00006460C46154600277A48067003207949F2
:1011C000487020128870CC70281208714D71062169
:1011D0007448FFF7AFFF074672498F713812C87124
:1011E00008227148FFF739FFBDE8F0812DE9F04191
:1011F00007460C4615461E46032C02D0062C0CD181
:1012000005E0324629463846FFF7D0FF06E0324671
:1012100029463846FFF7AAFF00E000BF00BFBDE83F
:10122000F08110B56148007868B9002060490880F5
:101230006048038860480288604801786048007808
:10124000FFF7D4FF00BF00BF10BD704770B5002589
:101250000026002456480088801E81B25948FFF7B6
:1012600069FF054652480088801E5649095C50486F
:101270000088401E534A105C41EA0026B54215D151
:1012800000BF10E0032000EB44004E49085C02213F
:1012900001EB44014B4A515C40EA01204A4921F8E4
:1012A0001400601CC4B2022CECDB02E005204749AC
:1012B000087070BD70B50025002600243C4A1288D5
:1012C000D11E01EBD1725210012A3CDB384A128840
:1012D000D01E00EBD07252107D2A34DC34480088D6
:1012E000801E81B23748FFF725FF05463048008849
:1012F000801E3449095C2E480088401E314A105C2B
:1013000041EA0026B5421AD100BF10E0042000EBEC
:1013100044002C49085C032101EB4401294A515C3B
:1013200040EA0120284921F81400601CC4B2254974
:10133000887800EBD071B4EB610FE7DB06E00520A5
:101340002249087002E003202049087070BD10B5E2
:101350001C4800781A49097888421DD119484078FC
:10136000032806D0062807D0532808D056280ED1C7
:1013700009E0FFF79FFF0EE0FFF768FF0BE0532047
:101380001249087007E056201049087003E0012058
:101390000E49087000BF02E002200C49087010BD21
:1013A00070470000AC050020003801403E000020DE
:1013B000080000203C0000203A00002038000020F7
:1013C00037000020AC0D0020AC15002036000020B6
:1013D00008B54FF4E06001F0B1FD37208DF8000052
:1013E00000208DF8010004208DF8020001208DF806
:1013F0000300684601F0A7FD08BD0EB501212020BD
:1014000002F039FC3920ADF8040040F2CF20ADF8ED
:10141000000069460D4802F059FD01210B4803F018
:1014200077FB01221146094803F0C7F8012107485C
:1014300003F0A8F80021202002F01DFC0EBD10B51D
:10144000FFF7C6FFFFF7D9FF10BD000000140040F2
:1014500070477047704770477047704770B50446D3
:1014600010464FF080750560051F28462C606FF010
:101470000106051F28462E604FF01236051F28462C
:101480002E604FF00336051F28462E604FF00236BF
:10149000051F28462E607610051F28462E60051F62
:1014A000284629604FF01136051F28462E604FF060
:1014B0001036051F28462E604FF00936051F2846B6
:1014C0002E604FF00836051F28462E604FF0073675
:1014D000051F28462E604FF00636051F28462E6051
:1014E0004FF00536051F28462E604FF00436051FC5
:1014F00028462E6070BD70477047704710B500F0E9
:1015000011F8044606480078401C0549087020463A
:1015100000F00CF800F041FB00F015FA10BD704728
:1015200055000020EFF3108072B6704780F31088EA
:1015300070471D484FF0FF010170002080F30988BB
:101540001A48012101701A484FF08051016062B6BB
:10155000FEE717484FF080510160704714484FF084
:1015600080510160704772B6EFF3098028B12038CE
:1015700080E8F00F0F490968086000B50E48804701
:101580005DF804EB0D480E490A78027009480D49D0
:101590000A680260106890E8F00F203080F3098834
:1015A0004EF0040E62B6704722ED00E062000020AB
:1015B00004ED00E068000020F71400085700002048
:1015C00058000020700000200146002002E0491C65
:1015D000421CD0B20A78002AF9D170472DE9F041B7
:1015E00005460E4614460027FE48007820B111201B
:1015F00020700020BDE8F0812878012808D002285A
:1016000007D0032802D0042804D100E000BF00BFA7
:1016100000BF03E0012020700020EBE700BFFFF7D0
:1016200081FF0746686930603068FFF7CDFF80466C
:101630003846FFF77BFF002020704046DAE72DE9AF
:10164000F04105460E4614460027E648007818B1DA
:1016500012202070BDE8F0812878012808D00228E7
:1016600007D0032802D0042804D100E000BF00BF47
:1016700000BF02E001202070ECE700BFFFF752FF3F
:1016800007466E613846FFF751FF0020207000BF0B
:10169000E0E77CB5002514E06946284601F0FFF834
:1016A000064666B9D04850F8254044B1012C06D012
:1016B000D4E9020100EB8100E06301982064681C1A
:1016C000C5B23F2DE8D97CBD002400BF02E0142044
:1016D00001F0EEF9C54800780028F8D0C448006849
:1016E0006421B0FBF1F0C24908600846006828B9DF
:1016F0000020C0490870FF2001F013F900BFFFF778
:1017000011FF0446BC480068BC4908600020BA4983
:1017100008602046FFF70AFFB8480068B449096826
:10172000B0FBF1F0C0F16400B2490870FFF795FE1C
:10173000FFF7AFFF0A2001F0BBF9E0E700B587B083
:10174000032000218022AE4BCDE90132CDE9031008
:101750004FF6FE703E23AB4A0090AFF2930000F0CC
:10176000BEFE06AAA8A13E2001F01BF807B000BDEE
:10177000002400BF00BFFFF7D5FE04469E48006866
:10178000401C9D4908602046FFF7D0FEFFF764FE2D
:10179000F1E700B587B00320002180229E4BCDE900
:1017A0000132CDE903104FF6FF703F239B4A0090B2
:1017B000AFF2430000F093FE06AA99A13F2000F08B
:1017C000F0FF07B000BD04E0002200F8012B4A1E24
:1017D00091B20029F8D1704770B5F0219448FFF715
:1017E000F2FF002411E0601C85B204EB4400904934
:1017F00001EBC00305EB450001EBC00600201870AB
:101800005E608CA05861601C84B2092CEBD304EBA1
:101810004400874901EBC00300201870586085A080
:10182000586108468449086070BD70B54FF4D161B5
:101830008248FFF7C8FF4FF480716B48FFF7C3FF82
:10184000002413E0601CC5B204EB440000EB04105C
:101850007A4901EB800305EB450000EB051001EB35
:1018600080065E6173A05864601CC4B2152CE9D375
:1018700004EB440000EB0410704901EB80030020EE
:1018800058616CA0586400206D4908606B486D4930
:10189000086070BD00216C4A1170002004E0002136
:1018A0006A4A1154411CC8B20828F8D30021684A7A
:1018B0001170684A1170684A1160684A1160704777
:1018C0000020674908604749087066490870664902
:1018D00008706649087066490860474908604749CA
:1018E00008604349086041490870704710B5FFF728
:1018F000AFFDFFF7E5FFFFF7CDFFFFF796FFFFF71F
:101900006BFFFFF746FFFFF719FFFFF7A2FD10BDC2
:1019100056480078012808D132480078FF2804D2C0
:1019200030480078401C2F49087070475149464A9A
:101930001278885C4549095C4E4A515C01EBC00154
:10194000444A1170704710B50024484800780128B7
:1019500030D1FFF7E7FD04462248007820B1214846
:101960000078401E1F4908701E480078F8B93D48AD
:101970000078E0B9FFF7DAFF1B483649097850F8DC
:101980002100354908603348007831490978884298
:101990000DD031480068006B401C2F49096808636E
:1019A00033480068401C32490860FFF7D7FD2046E5
:1019B000FFF7BCFD10BD10B500242C4800780128AD
:1019C0005ED1FFF7AFFD04460648007840B92548D0
:1019D0000078FF2851D223480078401C21494BE071
:1019E0004BE00000550000206C2200205400002035
:1019F0004C0000204800002064000020500000201F
:101A00006C1E00206820002075432F4F532D49493C
:101A100020537461740000006C20002068220020B4
:101A200075432F4F532D49492049646C65000000D0
:101A30007C1D00203F000000440000206C2300209B
:101A4000740000206C000020590000205A00002083
:101A5000570000205800002070000020680000207F
:101A60007C0000205600002063000020620000205F
:101A700040000020228F000808702046FFF756FD26
:101A800010BD10B50024FFF74DFD0446FD48007859
:101A9000F8B9FD480078E0B9FFF748FFFB48FC497A
:101AA000097850F82100FB490860F9480078FA49A4
:101AB000097888420DD0F7480068006B401CF54952
:101AC00009680863F5480068401CF4490860FFF79E
:101AD00040FD2046FFF72AFD10BD10B50024F04858
:101AE0000078012821D1FFF71DFD0446E648007863
:101AF000C0B1E5480078401EE34908700846007808
:101B000060B9E048007828B92046FFF70FFDFFF7DD
:101B1000B8FF0AE02046FFF709FD06E02046FFF780
:101B200005FD02E02046FFF701FD10BD10B5DC48C1
:101B3000007890B9FFF7FAFED5480078D6490870CA
:101B4000D248D349097850F82100D24908600846A4
:101B50000068D4490860FFF7ECFC10BD10B5002404
:101B6000022000F0A5FFFFF7DDFC04460020CE496F
:101B700008602046FFF7DAFC0A2000F099FFFFF723
:101B8000D1FC0446C8480068C84908600120C8491B
:101B900008702046FFF7CAFC10BD70B50026FFF79D
:101BA000ACFCFFF7BFFC0646C2480068401CC149B8
:101BB00008603046FFF7BAFCB9480078012853D1D5
:101BC000BD48007820B1012804D0022809D103E0E3
:101BD00001250BE0002509E001250120B649087028
:101BE00004E001250020B449087000BF00BF05B91A
:101BF00070BDB248046833E0FFF794FC0646606AA3
:101C000050B3606A401E6062606A28BB94F8280086
:101C100000F0370040B114F8280F00F0C800207021
:101C200001206070283C02E0002084F8290094F82C
:101C3000280000F0080078B92C34A078A049097871
:101C400008439F49087020789E49085C61780843E2
:101C500014F82C199B4A505464693046FFF766FC0F
:101C600094F82A003F28C7D100BFC1E740F22310F3
:101C70007047704710B590F82C2001F10B039B5C66
:101C800090F82D40A34301F10B04A35423469B5C21
:101C900023B98B7A90F82E40A3438B7210BD2DE9A7
:101CA000F04F05460F4690469946A87A86490E5C45
:101CB00005F10B00805D11F800B00BEBC60000F0E1
:101CC000FF0A724850F82A400020203460602760E4
:101CD000207A20EA0800207284F80990207A203CBB
:101CE00000F0080068B994F82E0075490978084397
:101CF000734908707348805D94F82D10084371494A
:101D0000885529462046FFF7B5FF5046BDE8F08FBD
:101D100010B5644A1268D061624A126892F82C3099
:101D200000F10B02D25C5F4B1B6893F82D301A4315
:101D30005C4B1B6893F82C4000F10B031A55827A18
:101D4000584B1B6893F82E301A438272554A12681A
:101D500092F82C105B4A525C524B1B6893F82D3062
:101D60009A43584B5A541A46525C42B94D4A12682B
:101D700092F82E30524A12789A43514B1A7010BD85
:101D8000014600228A72002005E0002301F10B02C7
:101D90001354421CD0B20828F7D3704705E011F85D
:101DA000013B00F8013B531E9AB2002AF7D170475D
:101DB0002DE9F84F05460F4690469946DDE90AABF6
:101DC00000200090FFF7AEFB009040480468002C14
:101DD0007ED010343D49606808600098FFF7A6FB8C
:101DE00044F8107CA576002020766076606144F887
:101DF0000CBC44F804AC44F8088C0C982080A4F87F
:101E000002900020E077E810207705F00700E076E8
:101E1000217F01208840A077E17E01208840607703
:101E20000020E06020612062A0626062E0622063C6
:101E3000AFF200406063103C002606E0002104F190
:101E4000480040F82610701CC6B2002EF6D020467E
:101E5000FFF752FB2046FFF7FDFAFFF763FB009008
:101E60000A4840F825401548006860610020A061DC
:101E70001248006810B11148006884610F4804607E
:101E80002C3426E055000020560000206C22002053
:101E90005800002070000020570000204000002063
:101EA0006200002068000020640000204C00002038
:101EB000540000207C0000207800002074000020E6
:101EC000590000205A000020228F00086C000020DA
:101ED00019E0A0780E49097808430D490870207868
:101EE0000C49085C6178084314F82C19094A5054CD
:101EF00009480078401C084908700098FFF716FB55
:101F00000020BDE8F88F0098FFF710FB4220F8E7AB
:101F1000590000205A0000206300002070B50446DC
:101F200000262078012801D0002070BDFFF7FAFAC2
:101F300006466568002060603046FFF7F7FA2846DD
:101F4000F3E770B505460026E748007808B10020A1
:101F500070BDFFF7E7FA0646E4480468006820B160
:101F6000E24800684068E14908603046FFF7DEFA61
:101F70004CB101202070002020816560DCA06061F0
:101F80002046FFF7FDFE2046E2E72DE9F047044634
:101F9000884615464FF000092078012804D001201A
:101FA00028702046BDE8F087CF48007818B10F2090
:101FB00028702046F6E7FFF7B5FA8146A07A08B107
:101FC000012700E00027B8F1000F03D0B8F1010F9E
:101FD0003AD119E08FB9C6A0606100202070C348D3
:101FE0000068606000202081C04804604846FFF718
:101FF0009DFA00202870002605E04846FFF796FA73
:1020000049202870264626E005E0002302221946D2
:102010002046FFF744FEA07A0028F6D1B4A0606104
:1020200000202070B1480068606000202081AF4827
:1020300004604846FFF77AFA012F01D1FFF721FD2E
:1020400000202870002606E04846FFF76FFA0720B8
:102050002870264600BF00BF3046A3E72DE9F041B7
:1020600005460F4614464FF000082878012804D092
:10207000012020700020BDE8F0819B48007818B155
:10208000022020700020F6E79A48007818B10D2051
:1020900020700020EFE7FFF745FA80466E6846B1F2
:1020A000002068604046FFF741FA0020207030466B
:1020B000E1E79148006890F8280040F002008E495E
:1020C000096881F8280000208B49096881F82900F7
:1020D0008948006847622846FFF71AFE4046FFF726
:1020E00025FAFFF7CEFCFFF71DFA8046824800680C
:1020F00090F8290020B101280DD002280AD105E06E
:102100007D480068066A002020700DE000260E2041
:10211000207009E000BF294677480068FFF7AAFD54
:1021200000260A20207000BF00BF00207249096805
:1021300081F828007049096881F829006E4909680A
:10214000C8616D49096808624046FFF7EFF93046FB
:1021500091E72DE9F04104460F4615464FF000087F
:102160002078012804D0012028700020BDE8F081EB
:10217000FFF7D8F98046A07A20B300267FB1012F5F
:102180000CD107E002231A4600212046FFF787FD05
:10219000701CC6B2A07A0028F4D109E000BF022367
:1021A0001A4600212046FFF77AFD701CC6B200BF18
:1021B00000BF4046FFF7BAF9FFF763FC0E20287016
:1021C0003046D3E74046FFF7B1F90020287000BF42
:1021D000CCE770B504460D4600262078012801D0D2
:1021E000012070BDFFF79EF90646A07A60B100237A
:1021F000022229462046FFF752FD3046FFF796F9A6
:10220000FFF73FFC0020ECE7606820B13046FFF7A5
:102210008DF91420E5E765603046FFF787F9002067
:10222000DFE72DE9F04104460E46154600272078E9
:10223000012802D00120BDE8F081FFF773F90746BD
:10224000A07AE8B105F0010050B105E000230222B8
:1022500031462046FFF723FDA07A0028F6D105E09D
:102260000023022231462046FFF719FD3846FFF7CA
:102270005DF905F0040008B9FFF703FC0020DAE778
:10228000606820B13846FFF751F91420D3E7666043
:102290003846FFF74BF90020CDE72DE9F04704461B
:1022A0000D464FF000092078012802D00120BDE83A
:1022B000F087FFF737F98146A07A287304F10B07FE
:1022C00005F10408002605E017F8010B08F8010BDA
:1022D000701CC6B2082EF7D3606828604846FFF726
:1022E00025F90020E3E7000055000020440000200D
:1022F0003F00000056000020680000202DE9FF5F2D
:102300008146884600200090FFF70CF90090F948BC
:1023100050F8280030B10098FFF708F9282004B0E1
:10232000BDE8F09FB9F1FF0F03D1F348006890F8C2
:102330002A90F04850F8294024B90098FFF7F6F8A1
:102340002920ECE7012C04D10098FFF7EFF8432097
:10235000E5E74FEAE80708F0070003900120B840DE
:1023600000F0FF0A01210398814001F0FF0B0020DB
:10237000E04941F82900084640F8284014F82C6F3D
:10238000A078029060782C3C0190DC48815D019837
:102390000140D1B1D948805D01998843D74988551A
:1023A0000846805D28B9D648007802998843D44908
:1023B0000870D348007840EA0A00D1490870CF4835
:1023C000C05D40EA0B00CD49C855E569D5B105F1BE
:1023D0000B00805D0199884305F10B018855084683
:1023E000805D18B9A87A02998843A872A87A40EA51
:1023F0000A00A87205F10B00C05D40EA0B0005F170
:102400000B01C85584F82A8084F82C70039884F84E
:102410002B0084F82EA084F82DB00098FFF786F8E2
:10242000B8480078012801D1FFF72BFB002076E7A0
:102430002DE9FE4F06460F4690461C464FF0000918
:10244000FFF770F88146B048007828B14846FFF79A
:102450006DF83C20BDE8FE8FA64850F8240060BB14
:102460000120A44941F824004846FFF75FF8002303
:10247000424639463046FEF7F1FF82460020009082
:10248000019003460246514602902046FFF790FC19
:10249000054635B99B48007801280CD1FFF7F1FAC1
:1024A00009E0FFF73FF881460020924941F82400F7
:1024B0004846FFF73BF82846CCE74846FFF736F892
:1024C0002820C7E702F0010343B102F002032BB159
:1024D00002E0491E002308C00029FAD170472DE907
:1024E000F04F85B081468A4693461C46DDE90F7859
:1024F000129D00200390FFF715F8039082480078A2
:1025000030B10398FFF712F83C2005B0BDE8F08F1A
:10251000784850F8240088BB0120764941F824000F
:102520000398FFF703F82A4641463846FFF7CAFFEB
:102530002B465A4651464846FEF790FF04901198A4
:10254000CDE9008002953A4620460E9B0499FFF79C
:102550002FFC064636B96B48007801280CD1FFF7EE
:1025600090FA09E0FEF7DEFF03900020614941F890
:1025700024000398FEF7DAFF3046C6E7FFE703982A
:10258000FEF7D4FF2820C0E770B5054600265E4858
:10259000007808B1402070BD3F2D01D13E20FAE700
:1025A000FEF7C0FF0646FF2D03D15348006890F8A0
:1025B0002A50504850F8254024B93046FEF7B6FF5F
:1025C0004320E8E7012C04D13046FEF7AFFF3D2061
:1025D000E1E714F82C0F4949085C617888432178B9
:1025E000464A505414F82C091146085C30B994F846
:1025F0002E1043480078884341490870E06918B1BB
:102600002046E169FFF736FB0020606284F828006D
:1026100084F829003D480078FF2804D23B48007820
:10262000401C3A4908703046FEF780FFFFF721FB57
:10263000FEF778FF06463548007820B13348007829
:10264000401E324908702046FEF705FF30480078EA
:10265000401E2F4908700020264941F82500A06936
:1026600030B90020616988612A496069086005E025
:10267000D4E905014861D4E905108861264800685D
:1026800060612548046025A060643046FEF74EFF77
:102690001C480078012801D1FFF7F3F900207AE700
:1026A0002DE9F041044600273F2C02D13E20BDE831
:1026B000F081FF2C0BD1FEF735FF07460E4800686E
:1026C00090F82F603846FEF731FF3046EFE7FEF70F
:1026D00029FF0746074850F8245025B93846FEF729
:1026E00025FF4320E3E7012D1AD13846FEF71EFFF0
:1026F0003D20DCE76C220020680000205A0000200A
:1027000059000020620000205500002056000020E3
:1027100063000020740000206C0000203F000000D7
:102720003F2085F82F003846FEF700FF0020BEE767
:102730002DE9F04706460F4614464FF00008D648EC
:10274000007820B1112020700020BDE8F087FEF74E
:10275000E9FE8046FF2E03D1D048006890F82A6039
:10276000CF4850F8265035B94046FEF7DFFE4320EB
:1027700020700020E9E7012D06D14046FEF7D6FE85
:10278000432020700020E0E7686C38603868FEF76E
:102790001BFF81464046FEF7C9FE002020704846D8
:1027A000D3E72DE9F04106460F4614464FF00008E6
:1027B000B948007818B112202070BDE8F081FEF70A
:1027C000B1FE8046FF2E03D1B448006890F82A601D
:1027D000B34850F826502DB94046FEF7A7FE4320D7
:1027E0002070EAE7012D05D14046FEF79FFE432009
:1027F0002070E2E76F644046FEF798FE00202070EC
:1028000000BFDAE770B505460026FEF78BFE0646E8
:10281000A34850F8254024B93046FEF787FE4620ED
:1028200070BD012C04D13046FEF780FE4320F7E74F
:1028300094F8280000F0080060B314F8280F00F0A6
:10284000F700207014F82809F8B9606AC8B92C3468
:10285000A0789449097808439249087020789249F1
:10286000085C6178084314F82C198F4A505430469C
:10287000FEF75CFE8D480078012809D1FFF701F9C9
:1028800006E03046FEF752FE02E03046FEF74EFE0E
:102890000020C5E73046FEF749FE4420C0E72DE999
:1028A000F04707460D464FF0000A00202860686098
:1028B000FEF738FE8246FF2F03D17848006890F873
:1028C0002A70774850F827402CB95046FEF72EFE64
:1028D0004320BDE8F087012C04D15046FEF726FEC8
:1028E0004320F6E7207C00F0010020B95046FEF7B7
:1028F0001DFE4520EDE70026D4F80C90D4F80880A2
:102900005046FEF713FE00E0761C58F8041B002921
:10291000FAD0B0002860A9EB0600800068600020B3
:10292000D7E72DE9F04105464FF00008FEF7FAFD24
:102930008046FF2D05D15948006890F82A5001269D
:1029400008E05648006890F82A00A84201D1012604
:1029500000E00026524850F825402CB94046FEF7CA
:10296000E5FD4820BDE8F081012C04D14046FEF78A
:10297000DDFD4320F6E794F82C704B48C05D94F8D9
:102980002D1088434849C8550846C05D30B994F8B1
:102990002E104448007888434249087094F8280073
:1029A00040F0080084F828004046FEF7BFFD012EE5
:1029B00001D1FFF766F80020D4E72DE9F041054684
:1029C0000E460027FEF7AEFD0746FF2D03D1334824
:1029D000006890F82A50324850F825402CB9384603
:1029E000FEF7A4FD2920BDE8F081012C04D1384672
:1029F000FEF79CFD4320F6E74C2221463046FFF7C8
:102A0000CDF93846FEF792FD0020ECE72DE9F047BE
:102A100004460E4617464FF00009FEF783FD814637
:102A2000FF2C02D11D48056802E01D4850F82450D3
:102A300005F1480050F826804846FEF777FD002053
:102A400038704046BDE8F0872DE9F04704460E4651
:102A5000174698464FF00009FEF764FD8146FF2CAB
:102A600002D10E48056802E00D4850F8245005F1E7
:102A7000480040F826704846FEF758FD002088F8C8
:102A80000000BDE8F08710B504480068FEF747FD78
:102A9000FF20FFF779FD10BD5500002068000020E1
:102AA0006C220020590000205A0000206200002003
:102AB00070B5054600266348007800B170BD6248D5
:102AC000007800B1FAE71DB3FEF72CFD06465F481B
:102AD000006890F82C405E48005D5C49096891F8F8
:102AE0002D1088435A4908550846005D40B957489B
:102AF000006890F82E1057480078884355490870B0
:102B00005248006845623046FEF710FDFEF7B9FFF7
:102B100000BFD3E72DE9F04104460D4616461F4697
:102B20004848007810B15520BDE8F081464800784B
:102B300008B13220F8E7781D642148434FF47A71D8
:102B4000B0FBF1F14FF461606043C5EB051200EB9F
:102B50008200304400EBC00202EB001001EB800861
:102B60004046FFF7A5FF0020DEE770B505460026CA
:102B70003F2D01D32A2070BDFEF7D4FC064636480F
:102B800050F8254024B93046FEF7D0FC4320F2E748
:102B9000012C04D13046FEF7C9FC4320EBE7606A04
:102BA00020B93046FEF7C2FC5020E4E70020606206
:102BB00094F8280000F0370040B114F8280F20F0F6
:102BC0003700207001206070283C02E0002084F86B
:102BD000290094F8280000F00800A8B92C34A07847
:102BE0001C49097808431B49087020781849085C7B
:102BF0006178084314F82C19154A50543046FEF7F2
:102C000095FCFEF73EFF02E03046FEF78FFC002009
:102C1000B1E770B50025FEF785FC05460F4804684E
:102C20002846FEF783FC204670BD70B5044600259B
:102C3000FEF778FC0546094804602846FEF776FC56
:102C400070BD0000550000205600002068000020E4
:102C50005A000020590000206C2200207C00002037
:102C600010B5FDF7ACFBFEF741FE0323044A00213B
:102C70000448FFF7DDFBFEF759FF002010BD000000
:102C8000302B0020B9020008704700BFFEE700BFEC
:102C9000FEE700BFFEE700BFFEE7704770477047E2
:102CA00010B5FEF735FEFEF778FFFEF74CFE10BDBF
:102CB00008B5FEF72DFE40F225511A4802F000F942
:102CC00048B1184802F07CF8C0B200906946164836
:102CD0000068FFF77EFAFEF736FE08BD10B5FEF776
:102CE00017FE0121114801F016FFC0B101210F4864
:102CF00001F022FF0E480068401C0D49086008469C
:102D0000006807280BD90021202000F0B4FF002024
:102D100007490860012107480068FFF75AFAFEF7E3
:102D200012FE10BD003801400000002000140040D9
:102D30008000002004000020064880470648004725
:102D4000FEE7FEE7FEE7FEE7FEE7FEE7FEE7FEE75B
:102D5000FEE7FEE73B2E0008310100080CB500201D
:102D6000019000906C48006840F480306A49086027
:102D700000BF6948006800F4003000900198401CD2
:102D80000190009818B90198B0F5A06FF1D1624890
:102D9000006800F4003010B10120009001E0002034
:102DA00000900098012843D15C48006840F0100072
:102DB0005A4908600846006820F003000860084689
:102DC000006840F00200086053484068524948607B
:102DD0000846406848600846406840F480604860A3
:102DE0000846406820F47C1048600846406840F47B
:102DF000E81048600846006840F08070086000BF36
:102E00004548006800F000700028F9D0424840684A
:102E100020F00300404948600846406840F0020046
:102E2000486000BF3C48406800F00C000828F9D119
:102E30000CBD10B5FFF792FF10BD10B53648006805
:102E400040F00100344908600846406834490840B1
:102E50003149486008460068324908402E490860F8
:102E60000846006820F4802008600846406820F486
:102E7000FE0048604FF41F008860FFF7DAFF4FF054
:102E800000602949086010BD10B500210020002213
:102E9000214B5B6803F00C0121B1042906D00829FD
:102EA00028D107E0214B224C236027E01F4B204C08
:102EB000236023E0184B5B6803F47010164B5B68CB
:102EC00003F48032022303EB904022B9194B4343B1
:102ED000174C23600DE0104B5B6803F4003323B103
:102EE000144B4343124C236003E0104B4343104CFC
:102EF000236003E00D4B0E4C236000BF00BF064B68
:102F00005B68C3F303130C4CE15C094B1B68CB40BB
:102F1000074C236010BD000000100240002002405A
:102F20000000FFF8FFFFF6FE08ED00E000127A0057
:102F30008400002000093D00880000203149014341
:102F4000314A1160704770B5002100230F22C47808
:102F500004B32D4C246804F4E064C4F5E064210A51
:102F6000C1F10403CA40447804FA03F184781440A0
:102F700021430901254C0678A155047804F01F056A
:102F80000124AC4005786D11AD0005F1E025C5F8D0
:102F9000004109E0047804F01F050124AC401C4DF9
:102FA0000678761145F8264070BD1A4A0A40024359
:102FB000154B1B1F1A60704739B1134A121D126856
:102FC0000243114B1B1D1A6006E00F4A121D1268C6
:102FD00082430D4B1B1D1A607047042808D14FF027
:102FE000E021096941F004014FF0E022116107E09E
:102FF0004FF0E021096921F004014FF0E022116156
:10300000704700000000FA050CED00E000E400E06D
:1030100080E100E080FFFF1F30B943F2DB02810056
:10302000A1F1C0410A6005E043F2D2028100A1F1A2
:10303000C0410A606FF07042411C8900A1F1C0419B
:103040000A608100A1F1C041C1F804217047102835
:103050000AD118214FF020421166402151664FF0ED
:10306000FC319166D16610E01821F74A11604021C9
:103070004FF02042C2F884104FF0FC31F24A08327F
:1030800011604FF02042C2F88C1070471820EE49B2
:103090002031086000200906C1F8A4004FF0FC3080
:1030A000E94928310860091D0860091D086070475A
:1030B000D0E901121143C268114302691143426908
:1030C000114382691143C2691143026A1143426A82
:1030D0001143826A1143C26A1143026B11430268B1
:1030E0009200A2F1C0421160816808290BD10168E9
:1030F0008900A1F1C041096841F0400201688900DE
:10310000A1F1C0410A60416B0968426B526841EA13
:103110000211426B926841EA0221426B928941EAB4
:103120000241426B128A41EA0251426B127D41EA2E
:103130000261426B926911430268521C9200A2F133
:10314000C0421160C16AB1F5804F1BD1816B096823
:10315000826B526841EA0211826B926841EA022155
:10316000826B128A41EA0251826B127D41EA02614E
:10317000826B9269114302689200A2F1C042C2F8C8
:10318000041107E06FF0704201688900A1F1C041AD
:10319000C1F80421704730B50021002200234468A3
:1031A00044F0080485682C43C5682C4305692C430A
:1031B000456944EA4524856944EA4531C46924687F
:1031C000C5696D6844EA0524C5692D8944EA05444A
:1031D000C5692D7B44EA0562046A2468056A6D6846
:1031E00044EA0524056A2D8944EA0544056A2D7BD5
:1031F00044EA05630468102C05D14FF02044216691
:10320000A266E36608E0904C21604FF02044C4F8C9
:1032100088208D4C0C34236030BD016841F01001D2
:10322000426841EA4221826841EA4231864A2032BC
:103230001160C1680968C268526841EA0221C26827
:10324000128941EA0241C268127B41EA02617E4A68
:1032500028321160016909680269526841EA022155
:103260000269128941EA02410269127B41EA026164
:10327000754A2C321160416909684269526841EA15
:1032800002214269128941EA02414269127B41EA04
:1032900002614FF02042C2F8B01070470021016077
:1032A0000221416000218160C16001614161816151
:1032B000C16101624FF48051416249008162002185
:1032C000C16201630F21426B1160426B5160FF21AB
:1032D000426B91600F21426BD160426B1161426B76
:1032E00051610021426B91610F21826B1160826BF1
:1032F0005160FF21826B91600F21826BD160826BE4
:103300001161826B51610021826B916170471021C4
:103310000160002141608160C160016141618161A2
:10332000FC21C2691160C2695160C2699160C269C1
:10333000D160026A1160026A5160026A9160026A99
:10334000D16070470021016041608160FC21C2684A
:103350001160C2685160C2689160C268D160026940
:10336000116002695160026991600269D16042692D
:10337000116042695160426991604269D160704751
:1033800051B18200A2F1C042126842F001038200F2
:10339000A2F1C042136009E08200A2F1C0421268AB
:1033A0002A4B1A408300A3F1C0431A60704799B1B9
:1033B000102808D14FF02042126E42F004024FF064
:1033C00020431A661DE0204A126842F004024FF0C2
:1033D0002043C3F8802014E0102809D14FF0204288
:1033E000126E1A4BDB1E1A404FF020431A6608E09B
:1033F000154A1268154BDB1E1A404FF02043C3F8E4
:103400008020704748B110492031096841F004011B
:103410004FF02042C2F8A01009E00B4920310968A2
:103420000A4AD21E11404FF02042C2F8A010704745
:10343000B9B110280CD14FF02042126E42F0400278
:103440004FF020431A661FE0800000A0FEFF0F002F
:10345000724A126842F040024FF02043C3F88020C5
:1034600012E0102808D14FF02042126E6C4B1A4027
:103470004FF020431A6607E0684A1268684B1A400A
:103480004FF02043C3F880207047014600201029E8
:1034900003D14FF02042506F02E0604A14321068AE
:1034A000704710B5F2B1102807D14FF020435B6E82
:1034B0000B434FF02044636632E0B0F5807F08D1C3
:1034C000564B1B1D1B680B434FF02044C4F884303F
:1034D00026E0524B24331B680B434FF02044C4F8C2
:1034E000A4301DE0102807D14FF020435B6E8B43C2
:1034F0004FF02044636613E0B0F5807F08D1474B5E
:103500001B1D1B688B434FF02044C4F8843007E038
:10351000424B24331B688B434FF02044C4F8A43043
:1035200010BD10B5024600200023102A03D14FF031
:103530002044636E09E0B2F5807F03D1374C241D2F
:10354000236802E0354C2434236803EA01040CB1FB
:10355000012000E0002010BD102807D14FF02042CC
:10356000526E8A434FF020435A6613E0B0F5807FD5
:1035700008D12A4A121D12688A434FF02043C3F82B
:10358000842007E0254A243212688A434FF0204302
:10359000C3F8A420704770B5024600200023002421
:1035A0000025102A03D14FF02046736E09E0B2F5D2
:1035B000807F03D1194E361D336802E0174E243642
:1035C000336803EA010403EAD10514B10DB1012007
:1035D00000E0002070BD102808D14FF02042526E4C
:1035E00022EAD1024FF020435A6615E0B0F5807F01
:1035F00009D10A4A121D126822EAD1024FF0204373
:10360000C3F8842008E0054A2432126822EAD10275
:103610004FF02043C3F8A42070470000800000A0B2
:10362000BFFF0F0010B50446CC48844208D10121E9
:10363000042000F02DFB0021042000F029FB46E0CF
:10364000C748844208D10121082000F021FB002155
:10365000082000F01DFB3AE0C248844208D1012155
:10366000102000F015FB0021102000F011FB2EE0CF
:10367000BD48844208D10121202000F009FB00212F
:10368000202000F005FB22E0B848844208D1012147
:10369000402000F0FDFA0021402000F0F9FA16E089
:1036A000B348844208D10121802000F0F1FA0021C2
:1036B000802000F0EDFA0AE0AE48844207D10121F3
:1036C000801500F0E5FA0021A01500F0E1FA10BD28
:1036D00010B50121084600F0DBFA0021012000F0BE
:1036E000D7FA10BD2DE9F041024600250026002042
:1036F00000230024002791F803C00CF00F0591F877
:1037000003C00CF0100CBCF1000F03D091F802C004
:103710004CEA050591F800C0BCF1000F31D01468E7
:1037200000202BE04FF0010C0CFA00F3B1F800C0C0
:103730000CEA03069E4220D183004FF00F0C0CFAD6
:1037400003F7BC4305FA03FC4CEA040491F803C0F8
:10375000BCF1280F06D14FF0010C0CFA00FCC2F8A6
:1037600014C00AE091F803C0BCF1480F05D14FF036
:10377000010C0CFA00FCC2F810C0401C0828D1D380
:103780001460B1F800C0BCF1FF0F34DD54680020B4
:103790002EE000F1080C4FF0010808FA0CF3B1F824
:1037A00000C00CEA03069E4221D183004FF00F0CAB
:1037B0000CFA03F7BC4305FA03FC4CEA040491F845
:1037C00003C0BCF1280F05D100F1080C08FA0CF871
:1037D000C2F8148091F803C0BCF1480F07D100F182
:1037E000080C4FF0010808FA0CF8C2F81080401CD1
:1037F0000828CED35460BDE8F0814FF6FF710180F8
:10380000022181700421C170704702460020936834
:103810000B400BB1012000E0002070470146886892
:1038200080B2704702460020D3680B400BB10120E4
:1038300000E0002070470146C86880B2704701610F
:103840007047416170470AB1016100E04161704712
:10385000C16070474FF480320A43826181618261A6
:1038600082698269704702460020434B18684FF610
:103870008073184040EA021008433F4B18607047BD
:103880003E49C8617047F0B50A4600230024002174
:10389000002500F00046B6F1004F02D1364EF16926
:1038A00001E0354E7168C0F3034583B200F4401661
:1038B000B6F5401F08D121F070612F4E766826F0D2
:1038C00070662D4F7E6012E000F48016B6F5801F02
:1038D00006D1032606FA05F4A14341F0706106E023
:1038E000460D360103FA06F6B14341F0706122B18C
:1038F000460D360103FA06F6314300F00046B6F1F4
:10390000004F02D11C4EF16101E01B4E7160F0BD11
:1039100030B500228B071C0F0F2303FA04F2164B5D
:1039200008338C1053F824309343134C08348D1013
:1039300044F8253023468C1053F824308C07240F8C
:1039400000FA04F423430C4C08348D1044F825305D
:1039500030BD0A49DC3108607047000000080140B2
:10396000000C01400010014000140140001801400B
:10397000001C0140002001400000014000002042E6
:10398000DF48006840F00100DD49086008464068F3
:10399000DC490840DA49486008460068DA490840CE
:1039A000D74908600846006820F48020086008466F
:1039B000406820F4FE0048604FF41F0088607047A4
:1039C000CF49096821F48031CD4A11601146096858
:1039D00021F480211160B0F5803F03D0B0F5802F35
:1039E0000ED106E0C649096841F48031C44A11602D
:1039F00007E0C349096841F4A021C14A116000E011
:103A000000BF00BF704710B5014600220023002010
:103A10004A11012A02D1BA4C236806E0022A02D1D7
:103A2000B74C236A01E0B64C636A01F01F0201241F
:103A300094401C400CB1012000E0002010BD38B5BE
:103A4000002000900024002500BF3120FFF7DBFF9D
:103A500005460098401C00900098B0F5A06F01D07A
:103A6000002DF2D03120FFF7CEFF08B1012400E095
:103A70000024204638BD01460020A14A106820F0ED
:103A8000F80040EAC10010607047A0490860704724
:103A9000024600209A4B586820F47C1042EA010349
:103AA0001843974B5860704798490866704701461D
:103AB0000020934A506820F003000843506070478C
:103AC0008F48406800F00C007047014600208C4A87
:103AD000506820F0F0000843506070470146002015
:103AE000874A506820F4E060084350607047014600
:103AF0000020834A506820F4605040EAC1005060C2
:103B0000704729B17E4A527A02437D4B5A7204E0D3
:103B10007B4A527A82437A4B5A7270477B49D8313A
:103B20000860704701460020754A506820F4404004
:103B30000843506070470021714A20321170704A6A
:103B400082F82010012802D004280AD104E00121C3
:103B50006B4A2032117005E00521694A203211704C
:103B600000E000BF00BF70476949086070476449C2
:103B7000096A0143624A1162704765494439086025
:103B8000704730B500210022002400235C4D6D6891
:103B900005F00C0121B1042905D0082923D105E045
:103BA0005C4D056022E05B4D05601FE0544D6D6883
:103BB00005F47012524D6D6805F48034022505EB52
:103BC00092421CB9544D554305600BE04C4D6D6855
:103BD00005F400351DB1504D5543056002E04D4DD3
:103BE0005543056002E04B4D056000BF00BF444DEA
:103BF0006D6805F0F0010909484D6B5C0568DD4012
:103C000045603F4D6D6805F4E061090A434D6B5C0A
:103C10004568DD4085603A4D6D6805F46051C90A1C
:103C20003E4D6B5C4568DD40C560354D6D6805F403
:103C30004041890B3A4D6B5CC568B5FBF3F50561F6
:103C400030BD29B12E4A526902432D4B5A6104E01E
:103C50002B4A526982432A4B5A61704729B1284A3C
:103C600092690243264B9A6104E0254A9269824395
:103C7000234B9A61704729B1214AD2690243204BF4
:103C8000DA6104E01E4AD26982431D4BDA61704753
:103C900029B11B4AD2680243194BDA6004E0184A82
:103CA000D2688243164BDA60704729B1144A126910
:103CB0000243134B1A6104E0114A12698243104B0C
:103CC0001A61704712494039086070470F49C8644B
:103CD00070470B49C87170470948406A40F08070CE
:103CE00007494862704701460020054A92680A4029
:103CF0000AB1012000E00020704701498872704736
:103D0000001002400000FFF8FFFFF6FE00004242F4
:103D10008004424200127A0000093D009800002011
:103D2000A800002010B50446FE48844208D10121B5
:103D3000C014FFF7ADFF0021E014FFF7A9FFC4E0B6
:103D4000B4F1804F08D101210846FFF7AEFF0021F2
:103D50000120FFF7AAFFB8E0F348844208D101210F
:103D60000220FFF7A2FF00210220FFF79EFFACE038
:103D7000EE48844208D101210420FFF796FF00217C
:103D80000420FFF792FFA0E0E948844208D1012116
:103D90000820FFF78AFF00210820FFF786FF94E044
:103DA000E448844208D101211020FFF77EFF002162
:103DB0001020FFF77AFF88E0DF48844208D1012114
:103DC0002020FFF772FF00212020FFF76EFF7CE02C
:103DD000DA48844208D101214014FFF759FF00213D
:103DE0006014FFF755FF70E0D548844209D10121E6
:103DF000C804FFF74DFF00214FF40020FFF748FFF4
:103E000063E0D048844209D101210805FFF740FF53
:103E100000214FF48010FFF73BFF56E0CA48844270
:103E200009D101214805FFF733FF00214FF40010AD
:103E3000FFF72EFF49E0C548844208D10121402008
:103E4000FFF733FF00214020FFF72FFF3DE0C04880
:103E5000844208D101218020FFF727FF0021802024
:103E6000FFF723FF31E0BB48844208D101218015D0
:103E7000FFF71BFF0021A015FFF717FF25E0B6484D
:103E8000844209D101210804FFF702FF00214FF409
:103E90008030FFF7FDFE18E0B048844209D10121CF
:103EA0004804FFF7F5FE00214FF40030FFF7F0FE65
:103EB0000BE0AB48844208D101218804FFF7E8FEFB
:103EC00000214FF48020FFF7E3FE10BD002202889E
:103ED000944B98420ED0994B98420BD0B0F1804F42
:103EE00008D0914B984205D0904B984202D0904B0D
:103EF000984204D14FF68F731A404B881A438D4B6A
:103F0000984207D08C4B984204D04FF6FF431A409A
:103F1000CB881A4302808B8883850B880385814B6D
:103F200098420BD0854B984208D08B4B984205D0D5
:103F30008A4B984202D08A4B984201D10B7A038671
:103F400001238382704770B5002400220023058C72
:103F50004FF6FE7635400584028C8388048B4FF63D
:103F60008F752C40B51E2C400D882C43751E2A40A1
:103F70000D892A434D882A436A4DA8420BD06F4DC4
:103F8000A84208D0744DA84205D0744DA84202D072
:103F9000734DA84213D14FF6F7752A404D892A4335
:103FA0004FF6FB752A408D882A434FF6FF652B405C
:103FB0004FF6FF552B408D892B43CD892B438380B2
:103FC0000483CD888586028470BD70B500240022EC
:103FD0000023058C4FF6EF7635400584028C8388EC
:103FE000048B48F6FF752C404FF6FF452C400D889A
:103FF0004FF6FF7606EA05252C434FF6DF752A407B
:104000000D8906EA05152A434D8806EA05152A4357
:10401000444DA84202D0494DA8421DD14FF67F75AC
:104020002A404D894FF6FF7606EA05152A434FF6DA
:10403000BF752A408D8806EA05152A434FF6FF35DD
:104040002B404FF2FF752B408D8906EA85052B43E7
:10405000CD8906EA85052B4383800483CD880587B7
:10406000028470BD70B5002400220023058C4FF639
:10407000FF6635400584028C8388848B4FF68F75EC
:104080002C404FF6FC752C400D882C434FF6FF5505
:104090002A400D894FF6FF7606EA05252A434D880A
:1040A00006EA05252A431F4DA84202D0234DA84207
:1040B0001DD14FF2FF752A404D894FF6FF7606EA73
:1040C00005252A434FF6FF352A408D8806EA052547
:1040D0002A434EF6FF752B404DF6FF752B408D8918
:1040E00006EA05152B43CD8906EA05152B43838087
:1040F0008483CD888587028470BD70B5002200233B
:104100000024058C4EF6FF7635400584038C8488A8
:10411000828B48F6FF752A404FF6FF452A400D88EE
:1041200020E00000002C0140000400400008004096
:10413000000C00400010004000140040003401401A
:10414000004C014000500140005401400018004064
:10415000001C00400020004000400140004401409D
:10416000004801404FF6FF7606EA05252A434DF642
:10417000FF752B400D8906EA05352B434D8806EA6D
:1041800005352B43FA4DA84202D0FA4DA84208D17A
:104190004BF6FF752C408D894FF6FF7606EA8515A4
:1041A0002C4384808283CD88A0F84050038470BD66
:1041B000828B4FF2FF331A408283828B4FF6FF735C
:1041C00003EA01231A4382837047F0B50C46154673
:1041D000002200210026078C4EF6FF7C07EA0C0720
:1041E0000784828B018C4FF6FF7707EA043640F68E
:1041F000FF473A404FF6FF7707EA05273A434FF665
:10420000FF7707EA03373A43D94FB8420ED0D94F68
:10421000B8420BD0B0F1804F08D0D74FB84205D08C
:10422000D64FB84202D0D64FB84206D14DF6FF77EE
:10423000394046F48057394305E047F6FF57394087
:1042400044F48057394382830184F0BD828B4FF65A
:10425000F3731A408283828B0A4382837047F0B5DE
:104260000C461546002200210026078C4FF6FF6CF5
:1042700007EA0C070784828B018C4FF6FF7707EA69
:1042800004264FF60C773A404FF6FF7707EA0317FC
:104290002F433A43B64FB8420ED0B64FB8420BD078
:1042A000B0F1804F08D0B44FB84205D0B34FB842F8
:1042B00002D0B34FB84206D14FF6FF57394046F40B
:1042C0008077394305E04FF2FF57394044F4807757
:1042D000394382830184F0BD028B4FF2FF331A40D1
:1042E0000283028B4FF6FF7303EA01231A43028312
:1042F0007047F0B50C461546002200210026078CB9
:104300004FF6EF7C07EA0C070784028B018C4FF60F
:10431000FF7707EA041640F6FF473A404FF6FF776B
:1043200007EA03373A434FF6FF7707EA05273A4390
:104330008F4FB8420ED08F4FB8420BD0B0F1804FA4
:1043400008D08D4FB84205D08C4FB84202D08C4F68
:10435000B84206D14FF6DF77394046F010073943AF
:1043600005E04FF65F77394044F010073943028388
:104370000184F0BD028B4FF6F3731A400283028B67
:104380000A4302837047F0B50C461546002200210F
:10439000068C4FF6FE773E400684028B018C4FF66A
:1043A0000C7632407E1C06EA03162E433243704ED2
:1043B000B0420ED06F4EB0420BD0B0F1804F08D05B
:1043C0006D4EB04205D06D4EB04202D06C4EB04240
:1043D00006D14FF6FD76314044F00106314305E049
:1043E0004FF6F576314044F00106314302830184F3
:1043F000F0BD70B505460C465D4885420ED05D485F
:1044000085420BD0B5F1804F08D05B48854205D07E
:104410005A48854202D05A48854200D100E000BF88
:10442000208850B92389A28861882846FFF7ABFF0E
:10443000E1882846FFF79EFF25E0208804280AD15E
:104440002389A28861882846FFF753FFE188284620
:10445000FFF742FF17E0208808280AD12389A288A5
:1044600061882846FFF7FBFEE1882846FFF7EEFE4D
:1044700009E02389A28861882846FFF7A6FEE18823
:104480002846FFF795FE70BD2DE9F04105460C4624
:1044900000260127608808B9022600E00026A088CF
:1044A000012801D1022700E001272088A0B9238933
:1044B000A28861882846FFF766FFE1882846FFF753
:1044C00059FF23893A4631462846FFF712FFE18813
:1044D0002846FFF701FF13E02389A2886188284658
:1044E000FFF707FFE1882846FFF7F6FE23893A46E3
:1044F00031462846FFF747FFE1882846FFF73AFF95
:10450000BDE8F0810A884B881A438B881A43CB8810
:104510001A430B891A434B891A438B891A43A0F813
:10452000442070474FF6FF71818000210180C180D7
:104530004180017270470021018041808180C180EB
:10454000018141818181C1817047002101804180C9
:10455000012181800021C1800181704700210180FB
:1045600041808180C180018141818181704700004B
:10457000002C0140003401400004004000080040CD
:10458000000C004021B1028842F00102028004E0E8
:1045900002884FF6FE731A400280704731B1B0F8BE
:1045A000442042F40042A0F8442005E0B0F8442042
:1045B000C2F30E02A0F8442070471AB183890B435E
:1045C000838102E083898B438381704781827047B6
:1045D00041EA0203A0F8483070471AB183890B43BF
:1045E000838102E083898B438381704701894FF681
:1045F000F8721140018170470A46002101894FF687
:104600008F73194011430181704730B504460D4640
:1046100029462046FFF7F0FF208940F0070020815F
:1046200030BD2DE9F04104460D4616461F46602D6B
:1046300006D13B46012231462046FFF75AFE05E0EF
:104640003B46012231462046FFF79DFE2946204683
:10465000FFF7D2FF208940F007002081BDE8F081FC
:1046600030B50C4600210189C9B24FF6FF7505EA45
:104670000325154325432943018130BD2DE9F04130
:1046800005460E4617469846002443463A463146AC
:104690002846FFF7E5FF2C894FF6F870044044F0F8
:1046A00007044FF68F70044044F070042C81BDE87D
:1046B000F081F0B504460D4616461F463B4632468D
:1046C00029462046FFF7CCFF208940F48040208116
:1046D000F0BD0185828270470A46002101884FF6AD
:1046E0008F731940114301807047F0B50C46154691
:1046F0001E460021002200230189028B038C4FF605
:10470000F877394021434FF6FC473A4040F2011711
:104710003A434FF6DD773B404FF6FF7707EA06173F
:104720002F433B43018102830384F0BD0A460021ED
:10473000018B4FF68F7319401143018370470A466E
:104740000021018B48F6FF7319404FF6FF7303EA0F
:1047500002231943018370470A460021818B4FF6DB
:104760008F7319401143818370470A460021818B62
:1047700048F6FF7319404FF6FF7303EA022319430B
:104780008183704721B1028842F08002028004E0F8
:1047900002884FF67F731A400280704721B18288E9
:1047A00042F00402828004E082884FF6FB731A40D4
:1047B0008280704721B1828842F00802828004E042
:1047C00082884FF6F7731A408280704721B1828841
:1047D00042F00102828004E082884FF6FE731A40A4
:1047E000828070470A460021018B4FF6F77319400B
:1047F0001143018370470A460021018B4FF2FF737A
:1048000019404FF6FF7303EA0223194301837047EF
:104810000A460021818B4FF6F773194011438183BB
:1048200070470A460021818B4FF2FF7319404FF603
:10483000FF7303EA02231943818370470A4600216C
:10484000018B4FF6FB7319401143018370470A46F1
:104850000021018B4FF6FF3319404FF6FF7303EA37
:1048600002231943018370470A460021818B4FF6CA
:10487000FB7319401143818370470A460021818BE5
:104880004FF6FF3319404FF6FF7303EA0223194333
:10489000818370470A460021018B4FF67F731940D0
:1048A0001143018370470A460021018BC1F30E01B9
:1048B0004FF6FF7303EA02231943018370470A4648
:1048C0000021818B4FF67F7319401143818370471C
:1048D0000A460021818BC1F30E014FF6FF7303EAF4
:1048E00002231943818370470A460021018C4FF649
:1048F000FD7319401143018470470A460021018C61
:104900004FF6F77319401143018470470A4600219E
:10491000018C4FF6DF7319404FF6FF7303EA021361
:104920001943018470470A460021018C4FF67F73BA
:1049300019404FF6FF7303EA0213194301847047CD
:104940000A460021018C4FF6FF5319404FF6FF73C2
:1049500003EA02231943018470470A460021018CAF
:104960004FF2FF7319404FF6FF7303EA0223194316
:10497000018470470A460021018C4DF6FF731940EF
:104980004FF6FF7303EA023319430184704730B5D1
:10499000002301248C40A3B2048C9C430484048C27
:1049A00002FA01F5ADB22C43048430BD30B50023CA
:1049B00004248C40A3B2048C9C430484048C02FA2B
:1049C00001F5ADB22C43048430BD70B50346002020
:1049D00000241846183001258D40ACB21D8CA5432B
:1049E0001D8409B1082909D100EB6100056825F093
:1049F000700505600568154305600EE00D1FC5F3E1
:104A00004E052844056825F4E045056005684FF625
:104A1000FF7606EA02263543056070BD21B10288A3
:104A200042F00202028004E002884FF6FD731A4051
:104A30000280704721B1028842F00402028004E043
:104A400002884FF6FB731A400280704721B18288BA
:104A500042F08002828004E082884FF67F731A4021
:104A60008280704702884FF6F7731A4002800288EE
:104A70000A430280704782884FF68F731A40828003
:104A800082880A438280704702894FF6F8731A4081
:104A9000028102890A430281704702894FF67F73BF
:104AA0001A40028102890A4302817047818470475B
:104AB000818570478186704701877047818770477D
:104AC000A0F84010704702884FF6FF431A4002805A
:104AD00002880A43028070470146888E704701466B
:104AE000088F70470146888F70470146B1F8400033
:104AF00070470146888C70470146088D7047024612
:104B00000020138A0B400BB1012000E00020704709
:104B1000CA430282704730B50246002000230024B9
:104B2000158A05EA0103958905EA010413B10CB160
:104B3000012000E0002030BDCA430282704700001F
:104B400010B50446FB48844209D101218803FFF7D0
:104B50009FF800214FF48040FFF79AF832E0F648C2
:104B6000844209D101214804FFF79FF800214FF446
:104B70000030FFF79AF825E0F048844209D101217E
:104B80008804FFF792F800214FF48020FFF78DF89A
:104B900018E0EB48844209D10121C804FFF785F8E9
:104BA00000214FF40020FFF780F80BE0E548844235
:104BB00008D101210805FFF778F800214FF4801093
:104BC000FFF773F810BD2DE9F04786B005460E4695
:104BD0000024A24600BFA1460027B08900B100BF53
:104BE0002F462C8A4CF6FF700440F08804432C8238
:104BF000AC894EF6F3100440B088318908437189BE
:104C000008430443AC81AC8A4FF6FF400440B089AE
:104C10000443AC8201A8FEF7B4FFC648874202D124
:104C2000DDF810A001E0DDF80CA0A88900F4004038
:104C300040B10AEBCA0000EB0A1031684900B0FB32
:104C4000F1F807E00AEBCA0000EB0A1031688900AE
:104C5000B0FBF1F86420B8FBF0F0040120096421F6
:104C600001FB1089A88900F4004040B1322000EB1C
:104C7000C900B0FBF1F000F00700044308E0322067
:104C800000EB09106421B0FBF1F000F00F000443C9
:104C90002C8106B0BDE8F0874FF416510160002169
:104CA0008180C18001810C21418100218181704777
:104CB00010B502460020108A4FF2FF0318400B88FF
:104CC0004C8823438C882343CC8823431843108289
:104CD00010BD0021018041808180C180704721B1D9
:104CE000828942F40052828104E082894DF6FF738A
:104CF0001A4082817047F0B5034600240026002543
:104D0000002040F66A17B94200D100BF1846C1F32F
:104D1000421401F01F06012707FA06F5012C01D104
:104D20000C3004E0022C01D1103000E014301AB134
:104D300007682F43076002E00768AF430760F0BDD4
:104D40001AB1838A0B43838202E0838A8B43838276
:104D50007047028A4FF6F0731A400282028A0A43B1
:104D60000282704782894FF2FF731A4082818289E2
:104D70000A438281704721B1828942F00202828116
:104D800004E082894FF6FD731A4082817047028ADF
:104D90004FF6DF731A400282028A0A43028270478A
:104DA00021B1028A42F48042028204E0028A4BF678
:104DB000FF731A4002827047C1F308028280704775
:104DC00001468888C0F308007047818941F00101DD
:104DD00081817047028BD2B20283028B42EA0122A8
:104DE00002837047028B02F47F420283028B0A43E4
:104DF0000283704721B1828A42F02002828204E05D
:104E0000828A4FF6DF731A408282704721B1828A0C
:104E100042F01002828204E0828A4FF6EF731A4059
:104E20008282704721B1828A42F00802828204E0C5
:104E3000828A4FF6F7731A408282704721B18289C5
:104E400042F40042828103E08289C2F30E02828131
:104E5000704721B1828A42F40062828204E0828A31
:104E60004FF2FF731A4082827047828A4FF6FB73BB
:104E70001A408282828A0A438282704721B1828AE2
:104E800042F00202828204E0828A4FF6FD731A40E9
:104E90008282704702460020B1F5007F00D100BF3A
:104EA00013880B400BB1012000E00020704701F493
:104EB0000072B2F5007F00D100BFCA430280704784
:104EC00070B50246002400230025002040F66A1633
:104ED000B14200D100BFC1F3421501F01F0301260A
:104EE00006FA03F3012D02D19689334006E0022D24
:104EF00002D1168A334001E0968A33400C12012613
:104F000006FA04F41688344013B10CB1012000E015
:104F1000002070BD10B50022002340F66A14A142A3
:104F200000D100BF0A1201249440A3B2DC430480E4
:104F300010BD00000038014000440040004800401F
:104F4000004C00400050004030B50B4601460020A8
:104F50002022012409E021FA02F59D4205D303FA3B
:104F600002F5491B04FA02F52844151EA2F10102BC
:104F7000F1DC30BD064C074D06E0E06840F001036F
:104F800094E8070098471034AC42F6D3FBF7D4F806
:104F900024900008449000080148008870470000F1
:104FA000000002604FF0C04108807047014908804E
:104FB00070470000000002600FB4084B10B504A950
:104FC00002AA039800F01CF8044602A9002000F091
:104FD000F3F8204610BC5DF814FB0000B95100083E
:104FE00002E008C8121F08C1002AFAD170477047B2
:104FF000002001E001C1121F002AFBD17047000010
:105000002DE9FF4F8BB09A460F460546002606E075
:1050100025280BD052460D9990476D1C761C287898
:105020000028F5D10FB03046BDE8F08F0024A0462F
:105030000122604900E0044315F8013F203B02FAD9
:1050400003F00842F7D128782E2817D115F8010F60
:1050500044F004042A280ED06FF02F022878A0F123
:10506000300109290AD808EB880102EB410100EB65
:1050700001086D1CF2E757F8048B6D1C287869282D
:105080003ED006DC0028CDD063280BD0642804D1A4
:1050900036E0732810D075284BD052460D999047B2
:1050A000761C85E017F8040B8DF8000000208DF8C1
:1050B0000100E946012003E057F8049B4FF0FF3060
:1050C00061074FF0000401D40AE0641C44450DDA86
:1050D0008442FADB19F804100029F6D106E0641CBA
:1050E0008442FCDB19F804100029F8D1264404E0BE
:1050F00019F8010B52460D999047641EF8D257E0FB
:1051000001CF4FF00A0B002802DA40422D2102E0C5
:10511000210504D52B218DF82410012103E0E1079E
:1051200005D02021F7E70DF1200908910CE00021BE
:10513000F9E701CF4FF00A0BF9E75946FFF704FFF3
:1051400001F1300209F8012D0028F6D1ADEB09007C
:1051500000F1200B600701D44FF00108D84502DDB3
:10516000A8EB0B0000E000208046002406E009A820
:105170005246005D0D999047641C761C0898844245
:10518000F5DB04E0302052460D999047761CB8F1CB
:105190000001A8F10108F5DC05E019F8010B524601
:1051A0000D999047761CBBF10001ABF1010BF4DCCB
:1051B0006D1C34E7092801000A68531C0B6010704D
:1051C0007047000000000000000000000000000028
:1051D0000000000000181818181818080008180017
:1051E000000000000034242424000000000000001F
:1051F00000000000000016247F2424247E242400C4
:105200000000000000083E6848681C1612127C105E
:10521000100000000061D296740810162949C600DB
:105220000000000000003C646438724ACE467F00F3
:10523000000000000018181818000000000000000E
:105240000000000000040818103030303010101832
:105250000C04000000201008080C0404040C0818BA
:105260001020000000080A341C6A0800000000003A
:1052700000000000000000001818187F181818001F
:1052800000000000000000000000000000181808E6
:1052900030000000000000000000003C00000000A2
:1052A00000000000000000000000000000181800CE
:1052B00000000000000206040C0808101020204026
:1052C0000000000000003C6642475B7342663C0001
:1052D00000000000000018784808080808087E0050
:1052E0000000000000003C460606040810207E0076
:1052F0000000000000007C0606043C0202067C0060
:105300000000000000000C1C14246444FF0404008E
:105310000000000000007E6060607E0202067C00EB
:105320000000000000001E306048764242623C00EF
:105330000000000000007E0206040C081810300077
:105340000000000000003C6242361C6642423C0005
:105350000000000000003C664242661A0204780029
:1053600000000000000000001818000000181800DD
:1053700000000000000000001818000000181808C5
:10538000300000000000000004183060100C06001F
:10539000000000000000000000007E007E00000011
:1053A0000000000000000000301804060C1020006F
:1053B0000000000000301C06060618100010100047
:1053C00000000000001C224141DDB5A5A5AF94C03E
:1053D000403C00000000181C342426627E43C100BB
:1053E0000000000000007C4642467C4242427C00B5
:1053F0000000000000001E204040404040603E0091
:105400000000000000007C464243434342467800CF
:105410000000000000007E6060607E6060607E00D2
:105420000000000000007E6060607E6060606000E0
:105430000000000000001E604040CE4242623E007C
:10544000000000000000424242427E4242424200CE
:105450000000000000007E181818181818187E00A8
:105460000000000000007C040404040404447800EC
:105470000000000000004244485070584C44420074
:1054800000000000000020202020202020203E00DE
:105490000000000000006266675F5B5BC1C1C10085
:1054A000000000000000626272525A4A4E464600F6
:1054B0000000000000003C6243C3C3C343623C00E1
:1054C0000000000000007C46424246784040400018
:1054D0000000000000003C6243C3C3C343623C18A9
:1054E0000F00000000007C6662667C6C64666200EF
:1054F0000000000000003E6040601C0602027C00CC
:105500000000000000007F1818181818181818005C
:1055100000000000000042424242424242623C001F
:10552000000000000000C14342622624341C180021
:10553000000000000000C1C141495B5B7666660067
:1055400000000000000043663418181C2466C300E5
:10555000000000000000C14266341C181818180032
:105560000000000000007E02040C181020607E0085
:1055700000000000001C101010101010101010106F
:10558000101C000000402020101008080C04060227
:1055900000000000003C0C0C0C0C0C0C0C0C0C0C57
:1055A0000C3C00000000181C2462000000000000F9
:1055B00000000000000000000000000000000000EB
:1055C00000FF0000002010000000000000000000AC
:1055D00000000000000000003C06023E42467A0047
:1055E00000000000004040405C62424242427C00B9
:1055F00000000000000000001E20604060203E000F
:1056000000000000000202023E62424242663A008E
:1056100000000000000000003C62427E40603E004E
:1056200000000000000F1810107E10101010100065
:1056300000000000000000003F66426658403E4304
:10564000423C0000004040405C6242424242420014
:1056500000000000001818007808080808087E00FC
:105660000000000000040C007C0404040404040492
:105670000C78000000606060626C787068646200A2
:1056800000000000007808080808080808087E00E4
:105690000000000000000000764B4B4B4B4B4B00D2
:1056A00000000000000000005C62424242424200F2
:1056B00000000000000000003C62424342623C00E7
:1056C00000000000000000005C62424242427C4058
:1056D00040400000000000003E62424242663A0242
:1056E00002020000000000006E72636060606000F3
:1056F00000000000000000003E20203C06027C006C
:105700000000000000001010FE10101010101E000D
:1057100000000000000000004242424242663A009F
:105720000000000000000000434266243418180006
:105730000000000000000000C1C15B5A5E66660008
:10574000000000000000000062261C181C266200F9
:10575000000000000000000043426624341C1818BA
:1057600030E00000000000007E060C1810207E00D3
:1057700000000000000E18101010307010101010F3
:10578000180E000008080808080808080808080893
:10579000080800000030180808080C0E080808085F
:1057A00018300000000000000000714B06000000EF
:1057B00000000000000000000000000000000000E9
:1057C00000000000000000000000000000000000D9
:1057D00000000000000000000000000000000000C9
:1057E00000000000000000000000000003800180B5
:1057F00001800180018001800180018001800180A1
:105800000000000003C003C0000000000000000012
:105810000000000000000000000000000E700E708C
:105820000E700C30000000000000000000000000BE
:105830000000000000000000000000000000000068
:10584000000000000000000000000000000006183A
:10585000063806307FFE0C300C300C300C307FFEEA
:105860000C601C6018601860000000000000000060
:105870000000000000000000000000C000C00FF8A1
:105880003CC831C031803D801F8003F001F8031C0B
:10589000030C031C3FF83FE0070006000000000077
:1058A000000000000000000000001C007E0E630CE1
:1058B000631863307E6000C001800300077C0EE641
:1058C0001CC618C630C6607C000000000000000046
:1058D0000000000000000000000000000FE01CF0CD
:1058E000387038701C601FC00F003F8C71CC60ECAA
:1058F000607C70383CFC1FCE0000000000000000FF
:1059000000000000000000000000000003C0018053
:105910000180018000000000000000000000000085
:105920000000000000000000000000000000000077
:1059300000000000000000000000003000E001C096
:10594000018003000700060006000E000E000E0096
:105950000E00060007000300038001C000E00030D5
:10596000000000000000000000000C0006000380A2
:10597000018001C000E000600060007000700070F5
:105980000060006000E000C00180038006000C00A1
:1059900000000000000000000000000001801188ED
:1059A0001DB803C007E03DBC018801800000000075
:1059B00000000000000000000000000000000000E7
:1059C00000000000000000000000000000000000D7
:1059D0000000018001800180018001807FFE018044
:1059E0000180018001800000000000000000000034
:1059F00000000000000000000000000000000000A7
:105A00000000000000000000000000000000000096
:105A1000000003C003C001C001C003801F000000DC
:105A20000000000000000000000000000000000076
:105A30000000000000000000000000000FF0000067
:105A40000000000000000000000000000000000056
:105A50000000000000000000000000000000000046
:105A60000000000000000000000000000000000036
:105A7000000003C003C003C00000000000000000DD
:105A800000000000000000000000000000180038C6
:105A90000030006000E000C001C00180030003008E
:105AA00006000E000C001C00180030000000000072
:105AB00000000000000000000000000001800FF066
:105AC0001C38381C301C707E70EE738E7E0E7C0C81
:105AD000300C381C1E780FE00000000000000000B1
