:020000040800F2
:10000000B8320020B1480008014800080348000841
:10001000074800080B4800080F48000800000000CF
:10002000000000000000000000000000134800086D
:100030001548000800000000DF30000819480008DB
:10004000CB480008CB480008CB480008CB48000844
:10005000CB480008CB480008CB480008CB48000834
:10006000CB480008CB480008CB480008CB48000824
:10007000CB480008CB480008CB480008CB48000814
:10008000CB480008CB480008CB480008CB48000804
:10009000CB480008CB480008CB480008CB480008F4
:1000A000CB480008CB480008CB480008CB480008E4
:1000B000CB480008CB480008CB480008CB480008D4
:1000C000CB480008CB480008CB480008CB480008C4
:1000D000CB48000829480008CB480008CB48000856
:1000E000CB480008CB480008CB480008CB480008A4
:1000F000CB480008CB480008CB480008CB48000894
:10010000CB480008CB480008CB480008CB48000883
:10011000CB480008CB480008CB48000855480008E9
:10012000CB480008CB480008CB480008CB48000863
:10013000DFF80CD007F026F900480047D94700083F
:10014000B832002003E002F0CDFB02F0B9F9FAE783
:1001500008E002F027FB4FF46173002211461046BD
:1001600004F094FAF5E708B507E06A46002138483C
:10017000006803F02FFD01F058F8F6E708B50020FD
:10018000009024E06A4600213248006803F022FD16
:1001900004463148008840F2FF71884217DA2F4840
:1001A0000068032813D82C48008818B901212020A2
:1001B00005F01DFB20782A49274A128888542648D2
:1001C0000088401C24490880002024490860D9E7A1
:1001D0000AE02448007808B100F095FF00230222CD
:1001E0001946184604F052FAF3E710B50446002009
:1001F00003F063FC17490860002003F05EFC14491B
:1002000008600423184A0021AFF23B0003F0CCFE43
:100210000523164A0021AFF29B0003F0C5FE06231A
:10022000134A0021AFF2C10003F0BEFE0723114ABA
:100230000021AFF2E30003F0B7FE08230E4A0021CD
:10024000AFF2FF0003F0B0FEFF2003F059FF10BD36
:1002500004000020000000200800002058010020B9
:10026000C80F002014010020C40200200404002054
:100270004405002084060020C407002030B5214832
:1002800000686422B0FBF2F1B1F1807F00D31DE081
:1002900021F07F40401E4FF0E022506150170F22A6
:1002A000002807DA13071D0E174B00F00F04241F58
:1002B0001D5503E013071C0E144B1C5400BF0020F7
:1002C0004FF0E02290610720106100BF30BD10B5F3
:1002D00004F06FFBFFF7D2FF00F096FD01F019F874
:1002E00000F0ABFA01F0DCFA0021062001F0BAFFC1
:1002F00000F0CFFD062000F029FA0548007802F052
:100300000BFD10BD5C01002018ED00E000E400E0F2
:100310002800002001B502E00098401E00900098DF
:100320000028F9D108BD08B50121602005F052FA76
:1003300003208DF8020018208DF803004FF4804050
:10034000ADF800006946FE4804F088FF4FF4004015
:10035000ADF800006946FA4804F080FF0120ADF8CE
:1003600000006946F64804F079FF0220ADF800006D
:100370006946F34804F072FF8020ADF8000069463A
:10038000F04804F06BFF4FF48070ADF80000694650
:10039000EC4804F063FF4FF40070ADF800006946CC
:1003A000E84804F05BFF4FF48060ADF80000694658
:1003B000E44804F053FF4FF40060ADF800006946D4
:1003C000E04804F04BFF4FF48050ADF80000694660
:1003D000DC4804F043FF4FF40050ADF800006946DC
:1003E000D84804F03BFF4FF48040ADF80000694668
:1003F000D44804F033FF4FF40040ADF800006946E4
:10040000D04804F02BFF4FF48070ADF8000069462F
:10041000CB4804F023FF4FF40070ADF800006946AC
:10042000C74804F01BFF4FF48060ADF80000694638
:10043000C34804F013FF03208DF8020018208DF844
:1004400003001020ADF800006946BD4804F006FF27
:100450002020ADF800006946B94804F0FFFE802076
:10046000ADF800006946B64804F0F8FE4FF40060AD
:10047000ADF800006946B24804F0F0FE10208DF897
:10048000030003208DF802000220ADF80000694649
:10049000AC4804F0E3FE10208DF8030003208DF833
:1004A00002004FF48050ADF800006946A44804F003
:1004B000D5FE08BD00B597B00121080205F07DF911
:1004C00001200190042003908006079000200290F4
:1004D0000490059006900890099008200A9010203A
:1004E0000B9000200C900E900F9010904FF48050C5
:1004F0001190002012901390149001A8159016905E
:1005000008A804F091FB0121002004F0F5FC17B0CD
:1005100000BD10B5CF2006F097FF002006F098FF31
:10052000812006F095FF302006F092FFED2006F0C6
:100530008BFF642006F08CFF032006F089FF122059
:1005400006F086FF812006F083FFE82006F07CFF9E
:10055000852006F07DFF102006F07AFF782006F057
:1005600077FFCB2006F070FF392006F071FF2C20BA
:1005700006F06EFF002006F06BFF342006F068FFE7
:10058000022006F065FFF72006F05EFF202006F04F
:100590005FFFEA2006F058FF002006F059FF002018
:1005A00006F056FFB12006F04FFF002006F050FF86
:1005B0001B2006F04DFFB62006F046FF0A2006F08D
:1005C00047FFA22006F044FFC02006F03DFF352083
:1005D00006F03EFFC12006F037FF112006F038FF7D
:1005E000C52006F031FF452006F032FF452006F019
:1005F0002FFFC72006F028FFA22006F029FFF220D7
:1006000006F022FF002006F023FF262006F01CFF44
:10061000012006F01DFFE02006F016FF0F2006F077
:1006200017FF262006F014FF242006F011FF0B20F0
:1006300006F00EFF0E2006F00BFF092006F008FF63
:10064000542006F005FFA82006F002FF462006F021
:10065000FFFE0C2006F0FCFE172006F0F9FE092034
:1006600006F0F6FE0F2006F0F3FE072006F0F0FE7F
:10067000002006F0EDFEE12006F0E6FE002006F088
:10068000E7FE192006F0E4FE1B2006F0E1FE042040
:1006900006F0DEFE102006F0DBFE072006F0D8FE96
:1006A0002A2006F0D5FE472006F0D2FE392006F0BB
:1006B000CFFE032006F0CCFE062006F0C9FE062081
:1006C00006F0C6FE302006F0C3FE382006F0C0FE5D
:1006D0000F2006F0BDFE362006F0B6FEC82006F05C
:1006E000B7FE2A2006F0B0FE002006F0B1FE002082
:1006F00006F0AEFE002006F0ABFEEF2006F0A8FEEE
:100700002B2006F0A1FE002006F0A2FE002006F03D
:100710009FFE012006F09CFE3F2006F099FE3A2045
:1007200006F092FE552006F093FE112006F08CFE96
:100730000548FFF7EFFD292006F086FE10BD0000FA
:100740000014014000180140FCBF020010B504462F
:10075000072C00DD10BDFE480470204604EBD0716C
:100760004910A4EB410139B9F020FA4908804FF44F
:10077000A070F949088006E04FF4A070F5490880A0
:10078000F020F5490880362006F05EFE082141EA97
:10079000441006F05DFE2A2006F056FE002006F00A
:1007A00057FE002006F054FEEA490988491EC1F3AD
:1007B000072006F04DFEE7490978491EC8B206F049
:1007C00047FE2B2006F040FE002006F041FE0020F0
:1007D00006F03EFEE0490988491EC1F3072006F0F5
:1007E00037FEDD490978491EC8B206F031FE2C20DB
:1007F00006F02AFE00BFADE710B50221D74804F08D
:10080000DCFD40F6FF20FFF785FD0221D34804F010
:10081000D2FD40F6FF20FFF77DFD10BD10B5044668
:100820002CB14FF48051CE4804F0C7FD04E04FF4E2
:100830008051CB4804F0BFFD10BD10B5FFF773FD2C
:10084000FFF738FE0120FFF7E9FFFFF7D5FFFFF7BD
:1008500060FEBF480078FFF779FF10BD2DE9F04139
:1008600004460D4616461F462A2006F0EDFD2012CE
:1008700006F0EEFDE0B206F0EBFDA119491EC1F352
:100880000F2006F0E5FDA119491EC8B206F0E0FDF3
:100890002B2006F0D9FD281206F0DAFDE8B206F0AA
:1008A000D7FDE919491EC1F30F2006F0D1FDE91962
:1008B000491EC8B206F0CCFDBDE8F08170B5044613
:1008C0000D4601231A4629462046FFF7C7FF70BD93
:1008D00070B504460D4600262C2006F0B5FD00BF7D
:1008E00003E0284606F0B4FD761CA642F9D370BD9D
:1008F0002DE9F04106460F4614461D462B4622467A
:1009000039463046FFF7AAFF04FB05F095490988F0
:10091000FFF7DEFFBDE8F08170B505460C468D4857
:10092000008885420CDA8C480088844208DA214627
:100930002846FFF7C3FF8C4801880120FFF7C8FF56
:1009400070BD70B50024002500262E2006F07CFD29
:1009500006F074FD044606F071FD044606F06EFDD7
:10096000064606F06BFD0546E012C002A91240EAF9
:10097000411040EAE62070BD70B504460D46294698
:100980002046FFF79BFFFFF7DCFF0646304670BDB1
:100990002DE9FF4F83B081464FF0000AD3460598FA
:1009A000A0EB090504990698461ACDF8049004981E
:1009B0000090002D01DD012705E00DB9002702E0C0
:1009C0004FF0FF376D42002E02DD4FF0010806E0C8
:1009D00016B94FF0000802E04FF0FF387642B542FA
:1009E00001DD2C4600E034460020029019E0DDE9EC
:1009F0000010FFF791FFAA44B344A24505DDAAEB1E
:100A0000040A0198384480B20190A34505DDABEBA0
:100A1000040B0098404480B200900298401C80B2C1
:100A20000290611C02988842E1DD07B0BDE8F08FBA
:100A30002DE9F04104460D4616461F46DDF81880A4
:100A4000B8F1000F0CD03B46324629462046FFF74E
:100A500005FF06FB07F044490988FFF739FF27E047
:100A6000A019401E82B22B4629462046FFF790FF70
:100A7000E819401E83B2A019401E82B2E819401E38
:100A800081B22046FFF784FFE819401E83B2224658
:100A900029462046FFF77CFFE919491E8BB2A119B0
:100AA000491E8AB2A119491E88B22946FFF770FF74
:100AB000BDE8F0812DE9F05F05460E4691469B4664
:100AC00000240FFA89F70320A0EB49000FFA80FAFF
:100AD00097E0BBF1000F50D0A0464BE006EB0802B8
:100AE00091B22A1990B2FFF717FF06EB080291B2F4
:100AF0002A1B90B2FFF710FF321991B2A5EB080242
:100B000090B2FFF709FF321B91B2A5EB080290B239
:100B1000FFF702FFA6EB080291B22A1B90B2FFF783
:100B2000FBFEA6EB080291B22A1990B2FFF7F4FE81
:100B3000321B91B205EB080290B2FFF7EDFE3219BD
:100B400091B205EB080290B2FFF7E6FE0EE000005E
:100B5000280000202400002026000020001801406A
:100B600000140140320000203000002008F1010094
:100B70000FFA80F8B845B1DD2FE0F21991B22A19C9
:100B800090B2FFF7C9FEF21991B22A1B90B2FFF79B
:100B9000C3FE321991B2EA1B90B2FFF7BDFE321BC1
:100BA00091B2EA1B90B2FFF7B7FEF21B91B22A1B7B
:100BB00090B2FFF7B1FEF21B91B22A1990B2FFF783
:100BC000ABFE321B91B2EA1990B2FFF7A5FE3219C3
:100BD00091B2EA1990B2FFF79FFE601C04B2BAF11D
:100BE000000F05DAA000801D50440FFA80FA07E0DC
:100BF000E01B80000A3050440FFA80FA781E07B2DA
:100C000000BFBC427FF765AFBDE8F09F2DE9F05F04
:100C1000804689461646A6F120001FFA80FA7549DB
:100C200009688988734A1268D28801FB02F0C117EB
:100C300000EB5171C1F3C7076E48006800680AFBFA
:100C4000070B6C480068C3886A4800688288494678
:100C50004046FFF703FE2C2006F0F6FB002416E0CA
:100C6000002510E01BF8040080212941084020B134
:100C70006148008806F0ECFB03E06048008806F05D
:100C8000E7FB681CC5B2082DECDB601CC4B2BC429B
:100C9000E6DBBDE8F09F70B504460D46002624E073
:100CA000304654490968898808445549098888426A
:100CB00005DD00264F480068C088204484B22046E5
:100CC0004C490968C98808444E490988884201DDB1
:100CD000002600242A7821463046FFF797FF6D1C36
:100CE000444800688088304486B228780028D7D1EC
:100CF00070BD70B505460E46144624E028463D49B1
:100D00000968898808443E490988884205DD00252C
:100D100038480068C088304486B230463549096892
:100D2000C988084437490988884201DD0025002622
:100D3000227831462846FFF769FF641C2D48006879
:100D40008088284485B220780028D7D170BD70B53E
:100D500005460E46144624E0304626490968C988EF
:100D6000084428490988884205DD00262148006892
:100D70008088284485B228461E4909688988084425
:100D80001F490988884201DD002500262278314666
:100D90002846FFF73BFF641C16480068C0883044B3
:100DA00086B220780028D7D170BD124908607047FC
:100DB000104800687047104A1080104A1180704730
:100DC0000D4A128802800D4A12880A8070470A492B
:100DD0000880704709490880704770B50446FFF7DE
:100DE000E7FFC5882B460648028821460020FFF70A
:100DF0007FFD70BD2C00002030000020320000205C
:100E0000240000202600002008B50121082004F05D
:100E1000E1FC2020ADF8000010208DF80300032035
:100E20008DF8020069460F4804F018FA0120ADF869
:100E3000000069460B4804F011FA0220ADF80000EA
:100E40006946084804F00AFA2021064804F0B3FA7B
:100E50000121044804F0AFFA0221024804F0ABFA81
:100E600008BD0000000C014008B54FF4E06003F03D
:100E700021FE25208DF8000000208DF801000320C0
:100E80008DF8020001208DF80300684603F017FE7C
:100E900008BD00B585B00121042004F09BFC0121B0
:100EA000880304F097FC4FF40070ADF81000182090
:100EB0008DF8130003208DF8120004A9544804F0A3
:100EC000CDF94FF48060ADF8100004208DF81300C8
:100ED00004A94F4804F0C2F94FF4165000900020C6
:100EE000ADF804004FF40050ADF806000020ADF856
:100EF0000800ADF80C000C20ADF80A006946454822
:100F000005F0A3FDFFF7B0FF012240F22551414853
:100F100005F033FE01213F4805F023FE05B000BD7A
:100F200070B504460D462946204605F087FE00BFF1
:100F30008021204605F0F0FE0028F9D070BD2DE993
:100F4000F04107460D461646002405E0295D384667
:100F5000FFF7E6FF601CC4B2B442F7DB00BF4021DC
:100F6000384605F0D9FE0028F9D0BDE8F08170B50B
:100F700006460C46002500BF615D3046FFF7D0FFF6
:100F80006D1C605D0028F7D100BF4021304605F0A0
:100F9000C3FE0028F9D070BD2DE9F04105460C468E
:100FA000260AE7B23146284605F048FE00BF8021F8
:100FB000284605F0B1FE0028F9D03946284605F04C
:100FC0003DFE00BF8021284605F0A6FE0028F9D08E
:100FD000BDE8F08170B504460D46E1B20D4805F05C
:100FE0002DFE00BF80210B4805F096FE0028F9D0A9
:100FF000204670BD10B5044600BF2021054805F00D
:101000008BFE0028F9D0034805F01CFE10BD00003F
:10101000000801400038014070B502460C46FF252B
:10102000FF2309E012F8010B80EA03010648405C47
:1010300080EA05030548455C2000A4F10106B4B22E
:10104000F0D143EA052070BD70B3000870B4000809
:101050002DE9F04106460C461546002787480670E4
:1010600006208649487020128870CC7028120871BA
:101070004D7106218148FFF7CFFF07467F498F71E9
:101080003812C87108227E48FFF759FFBDE8F08189
:101090002DE9F04106460C461546002777480670B4
:1010A00003207649487020128870CC70281208718D
:1010B0004D7106217148FFF7AFFF07466F498F71E9
:1010C0003812C87108226E48FFF739FFBDE8F08179
:1010D0002DE9F04107460C4615461E46032C02D06A
:1010E000062C0CD105E0324629463846FFF7D0FFE2
:1010F00006E0324629463846FFF7AAFF00E000BF67
:1011000000BFBDE8F08110B500205E4908805E494F
:1011100008705E4803885E4802885E4801785E4831
:101120000078FFF7D5FF10BD70B50025002600241C
:1011300054480088801E81B25848FFF76DFF05466D
:1011400050480088801E5549095C4E480088401E62
:10115000524A105C41EA0026B54215D100BF10E0AA
:10116000032000EB44004D49085C022101EB4401DF
:101170004A4A515C40EA0120494921F81400601CA8
:10118000C4B2022CECDB02E005203F49087070BDC0
:1011900070B50025002600243A4A1288D11E01EBC2
:1011A000D1725210012A3CDB364A1288D01E00EB65
:1011B000D07252107D2A34DC32480088801E81B201
:1011C0003648FFF729FF05462E480088801E334920
:1011D000095C2C480088401E304A105C41EA002619
:1011E000B5421AD100BF10E0042000EB44002B49A7
:1011F000085C032101EB4401284A515C40EA0120CC
:10120000274921F81400601CC4B22449887800EBF7
:10121000D071B4EB610FE7DB06E005201A490870D6
:1012200002E003201849087070BD10B51B48007813
:101230001949097888421DD118484078032806D0FA
:10124000062807D0532808D056280ED109E0FFF70A
:101250009FFF0EE0FFF768FF0BE053200A4908707C
:1012600007E056200849087003E00120064908708D
:1012700000BF02E002200449087010BDC80700202A
:101280000038014008000020360000203C0000200B
:101290003A0000203800002037000020C80F00204E
:1012A000C817002008B54FF4E06003F003FC3720B6
:1012B0008DF8000000208DF8010004208DF8020058
:1012C00001208DF80300684603F0F9FB08BD0EB558
:1012D0000121202004F08BFA3920ADF8040040F2FF
:1012E000CF20ADF8000069460D4804F031FD012122
:1012F0000B4805F04FFB01221146094805F09FF805
:101300000121074805F080F80021202004F06FFA41
:101310000EBD10B5FFF7C6FFFFF7D9FF10BD0000E7
:101320000014004000B587B00121080304F052FA10
:101330000121D42004F04EFA0120ADF8040003206E
:101340008DF8060010208DF8070001A9FE4803F073
:1013500085FF2020ADF8040018208DF8070001A9B2
:10136000FA4803F07BFF4020ADF8040001A9F748DC
:1013700003F074FF8020ADF8040001A9F34803F0E6
:101380006DFF0121F04804F016F80020ADF80800C8
:101390004FF48270ADF80A000020ADF80C00022076
:1013A000ADF80E000120ADF810004002ADF81200BB
:1013B0000820ADF814000020ADF816000720ADF8A5
:1013C000180002A9E24804F08FFA0121E04804F075
:1013D00030FB07B000BD10B504462146DDA006F085
:1013E0003DF8002010BD10B504464FF48050E5498B
:1013F00008600AE0E3490868411EE24A116020B92A
:101400000020FFF7E8FFC0B210BD0221D04804F071
:1014100094FB0028EED02146CD4804F03BFB4FF46E
:101420008050D84908600AE0D6490868411ED54A6C
:10143000116020B90120FFF7CEFFC0B2E4E701211F
:10144000C34804F07AFB0028EED0C14804F024FB26
:10145000C0B2D9E710B500240121BB4803F0ADFFAD
:101460000520FFF7C0FF00BFFF20FFF7BCFF0446C9
:1014700004F001000028F7D10121B34803F09BFFDD
:1014800010BD10B50121B04803F097FF0620FFF70B
:10149000AAFF0121AC4803F08EFF10BD10B5044631
:1014A000FFF7EFFFFFF7D6FF0121A74803F085FF05
:1014B0002020FFF798FFC4F30740FFF794FFC4F321
:1014C0000720FFF790FFE0B2FFF78DFF01219E4854
:1014D00003F071FFFFF7BEFF10BD10B5FFF7D1FF9E
:1014E0000121994803F069FFC720FFF77CFF012124
:1014F000954803F060FFFFF7ADFF10BD70B50546DE
:101500000C461646FFF7BDFF01218F4803F055FF3B
:101510000220FFF768FFC4F30740FFF764FFC4F33E
:101520000720FFF760FFE0B2FFF75DFFB6F5807FB1
:1015300004DD4FF4807694A005F090FF03E0287856
:10154000FFF751FF6D1C3000A6F101018EB2F6D1FC
:1015500001217D4803F02FFFFFF77CFF70BD2DE9CF
:10156000F05F07460E4614464FF00008C146C246DB
:101570000025AB4606F0FF0ACAF10000C5B22046BE
:10158000E11704EB1161C1F30728E11704EB1161C6
:101590000912A4EB012101F0FF09BAF1000F20D1DB
:1015A000B8F1000F05D1224631463846FFF7A6FFB5
:1015B00064E009E04FF4807231463846FFF79EFF41
:1015C00006F5807607F580775FEA0800A8F101014B
:1015D00001F0FF08EED14A4631463846FFF78EFF4C
:1015E0004CE0B8F1000F18D1A94510DDA9EB0500BA
:1015F00000F0FF0B2A4631463846FFF77FFF2E44A6
:101600002F445A4631463846FFF778FF36E02246E7
:1016100031463846FFF772FF30E0601B84B2204647
:10162000E11704EB1161C1F30728E11704EB116125
:101630000912A4EB012101F0FF092A463146384680
:10164000FFF75CFF2E442F4409E04FF480723146CF
:101650003846FFF753FF06F5807607F580775FEA97
:101660000800A8F1010101F0FF08EED1B9F1000F67
:1016700004D04A4631463846FFF740FFBDE8F09FA8
:1016800070B505460C46164601212F4803F095FE1D
:101690000320FFF7A8FEC4F30740FFF7A4FEC4F33E
:1016A0000720FFF7A0FEE0B2FFF79DFE04E0FF2059
:1016B000FFF799FE28706D1C3000A6F101018EB273
:1016C000F5D10121204803F076FE70BD2DE9F041EF
:1016D000002400250026002701211B4803F06DFE91
:1016E0009F20FFF780FEFF20FFF77DFE0546FF20CD
:1016F000FFF779FE0646FF20FFF775FE074601213A
:10170000114803F058FE280440EA062040EA070486
:101710002046BDE8F08110B5002401210A4803F0FD
:101720004CFEAB20FFF75FFEFF20FFF75CFEFF20C3
:10173000FFF759FEFF20FFF756FEFF20FFF753FE8D
:1017400004460121004839E0001001400008014032
:10175000003001403C3C2D464C4153482D455252EF
:101760004F522D3E3E2053504920B5C8B4FDB3AC76
:10177000CAB1216572726F72436F6465203D202586
:10178000640A0000400000203C3C2D464C41534878
:101790002D4552524F522D3E3E205350495F464CEC
:1017A0004153485F50616765577269746520746F73
:1017B0006F206C61726765210A00000003F0FBFD79
:1017C000204610BD10B504460121324803F0F5FD56
:1017D0000320FFF708FEC4F30740FFF704FEC4F33D
:1017E0000720FFF700FEE0B2FFF7FDFD10BD10B5CA
:1017F000FF20FFF7F8FD10BD10B504464FF48050F0
:101800002549086009E024490868411E224A116000
:1018100018B90220FFF7DFFD10BD02211F4804F0B8
:101820008CF90028EFD021461C4804F033F94FF41E
:1018300080501949086009E017490868411E164A96
:10184000116018B90320FFF7C6FDE5E70121134831
:1018500004F073F90028EFD0104804F01DF9DBE71D
:1018600010B501210B4803F0A8FDB920FFF7BBFD1F
:101870000121084803F09FFD10BD10B50121054866
:1018800003F09BFDAB20FFF7AEFD0121014803F003
:1018900092FD10BD001001404000002000300140CA
:1018A00008B50121602003F095FF0120ADF800008C
:1018B0008DF8020010208DF803006946FE4803F001
:1018C000CDFC0420ADF800006946FB4803F0C6FCDF
:1018D0000820ADF8000001208DF8020048208DF8A6
:1018E00003006946F44803F0B9FC4FF40050ADF82A
:1018F000000001208DF8020010208DF803006946D9
:10190000EE4803F0ABFC4FF40051EC4803F055FDFA
:101910001020ADF8000048208DF803006946E64825
:1019200003F09CFC08BD01B5002007E00C2100BFBE
:101930000A00A1F10103D9B2FAD1401C00998842F2
:10194000F4D308BD70B505460421DB4803F035FD2E
:101950000121D94803F031FD00241FE0C4F1070044
:1019600045FA00F000F0010020B10421D24803F054
:1019700022FD03E00421D04803F01FFD0520FFF7FE
:10198000D2FF0121CC4803F016FD0520FFF7CBFF65
:101990000121C94803F011FD601CC4B2082CDDDB35
:1019A00070BD70B500250421C34803F006FD012178
:1019B000C14803F000FD002414E00121BE4803F0FB
:1019C000FCFC0821BC4803F0DCFC0646C4F10B001B
:1019D00006FA00F0284385B20121B74803F0EBFC7A
:1019E000601CC4B20C2CE8DB284670BD10B5044660
:1019F0002046FFF7A7FFFFF7D4FF10BD2DE9F04108
:101A000004460D469020FFF7F1FF06B20120FFF7D4
:101A10008AFFD020FFF7EAFF07B226802F80BDE8BB
:101A2000F0812DE9F0478CB0064600252821684654
:101A300005F0D3F900BF0AA90BA8FFF7DFFFBDF936
:101A40002C002DF81500BDF9281005A820F8151058
:101A5000681CC5B21021984803F093FC08B90A2D00
:101A6000E9DB1021944803F08CFC10B1002094496C
:101A700008700A2D7BD1BDF90070B846BDF91490ED
:101A8000CA4601240EE03DF91400B84202DA3DF9DD
:101A9000147005E03DF91400404501DD3DF9148066
:101AA000601CC4B20A2CEEDB012412E005A830F958
:101AB0001400484503DA05A830F9149007E005A89A
:101AC00030F91400504502DD05A830F914A0601C5F
:101AD000C4B20A2CEADBBDF90000BDF902100844CB
:101AE000BDF904100844BDF906100844BDF90810FA
:101AF0000844BDF90A100844BDF90C100844BDF9AA
:101B00000E100844BDF910100844BDF91210084425
:101B1000C01BA0EB0800C01000B23080BDF914104B
:101B2000BDF916000144BDF918000144BDF91A00C1
:101B30000144BDF91C000144BDF91E000144BDF97A
:101B400020000144BDF922000144BDF924000144F4
:101B5000BDF926000844A0EB0900A0EB0A00C01064
:101B600000B2708001200CB0BDE8F087FFE70020D4
:101B7000F9E72DE9F04105460C4616460127B4F970
:101B80000010B4F91020891AB4F90A30B4F91220FF
:101B90009A1A5143B4F90820B4F91030D31AB4F9A1
:101BA00002C0B4F91220ACEB020203FB121005F0E4
:101BB000CFFAB0610021B06905F030FB01D10027F8
:101BC000CAE0B5F90010B5F91020891AB4F90A3045
:101BD000B4F912209A1A5143B5F90820B5F910301A
:101BE000D31AB4F902C0B4F91220ACEB020203FB21
:101BF000121005F0ADFA3060B4F90010B4F91020FD
:101C0000891AB5F90820B5F91030D21A5143B5F93F
:101C10000020D21AB4F90830B4F910C0A3EB0C03B9
:101C200002FB131005F094FA7060B4F91010B5F9C6
:101C300008205143B4F90820B5F9103002FB131104
:101C4000B4F902205143B4F900205A43B4F91030DA
:101C5000B5F900C003FB1C23B4F90A2003FB0212F0
:101C6000B4F9081001FB0CF1B4F90030B5F908C063
:101C700003FB1C13B4F9121003FB012005F068FAF2
:101C8000B060B5F90220B5F91210511AB4F90A3052
:101C9000B4F912209A1A5143B5F90A30B5F9122055
:101CA0009B1AB4F902C0B4F91220ACEB020203FB98
:101CB000121005F04DFA05E0001801400014014033
:101CC00004010020F060B4F90010B4F91020891A62
:101CD000B5F90A30B5F912209A1A5143B5F9023014
:101CE000B5F912209A1AB4F90830B4F910C0A3EB70
:101CF0000C0302FB131005F02BFA3061B4F910103D
:101D0000B5F90A205143B4F90830B5F9122003FBA4
:101D10001211B4F902205143B4F90020B5F9123080
:101D20005A43B4F91030B5F902C003FB1C23B4F9CF
:101D30000A2003FB0213B4F9081001FB0CF1B4F9FB
:101D400000C0B5F90A200CFB1212B4F9121002FB04
:101D5000013005F0FDF970613846BDE8F08170B5DD
:101D600004460D4604F10A018AB2143988B22B46A2
:101D70002946FEF70DFE05F10A0083B2143881B240
:101D800022462046FEF704FE70BD2DE9F04FB9B0A3
:101D900004464FF00009CA4600201E901D90002600
:101DA000FE48FFF702F800211F20FFF704F8204645
:101DB000FEF7CCFCFA4800888010ADF85400F948D2
:101DC00000888010ADF85600BDF85400ADF85C00F6
:101DD000F448008800EB4000801001B215A8418152
:101DE000EF48008800EB4000801000B2ADF86400BE
:101DF00015A841894182BDF86400ADF86C00BDF8BA
:101E0000561015A84183002558E0E6480388E448A9
:101E1000028800210846FEF76BFDE3A6FEF7C8FF27
:101E20008088DF49098891FBF0F8304604F0E0FF34
:101E3000A8EB0000470820233A46E1A11FA800961E
:101E400005F01CFBD749098848101FA9FEF723FF9E
:101E5000FEF7AEFF8088D249098891FBF0F0471E5B
:101E6000681C009007EBD77042102023D6A11FA852
:101E700005F004FBFEF79CFFC088CA490988C0EB47
:101E8000610087B21FA93846FEF705FFD048FFF76B
:101E90004AFD15AA02EBC502528891B215AA32F882
:101EA000352090B2FFF75BFF00BF0DA901EBC50025
:101EB000FFF7B7FD0028F8D0681CC5B2042DA4DBDD
:101EC00006AA0DA915A8FFF754FE00210C9805F0ED
:101ED000A5F900D143E1BDF94E0005F039F90390B1
:101EE000079904F0E4FF8346BDF94C0005F030F992
:101EF0000390069904F0DBFF5946049004F07FFF3D
:101F00008046089904F07BFF05900C9905F001F8D4
:101F1000074605F03FF91FFA80F9BDF94E0005F0BC
:101F200017F903900A9904F0C2FF0590BDF94C001F
:101F300005F00EF90390099904F0B9FF0490059992
:101F400004F05DFF83460B9904F059FF80460C991D
:101F500004F0DFFF074605F01DF91FFA80FABDF90E
:101F60006C00484504DABDF96C00A9EB000003E001
:101F7000BDF96C00A0EB090080B21E90BDF96E00A7
:101F8000504504DABDF96E00AAEB000003E0BDF98C
:101F90006E00A0EB0A0080B21D901E980F2802DC94
:101FA0001D980F2800DDDAE00C9805F007F9CDE95F
:101FB0000201069805F002F907460022854B04F05D
:101FC000E6FFCDE90001DDE9022305F052F8CDE995
:101FD000040105F006F904EB44017F4A42F83100A0
:101FE0000C9805F0EBF8CDE90201079805F0E6F84A
:101FF00007460022774B04F0CAFFCDE90001DDE976
:10200000022305F036F8CDE9040105F0EAF804EB07
:102010004401714A02EBC10148600C9805F0CEF80A
:10202000CDE90201089805F0C9F807460022694B7E
:1020300004F0ADFFCDE90001DDE9022305F019F858
:10204000CDE9040105F0CDF804EB4401624A02EB4E
:10205000C10188600C9805F0B1F8CDE90401099838
:1020600005F0ACF800225B4BCDE9000104F08FFFD6
:10207000CDE90201DDE9042304F0FBFF074605F08A
:10208000B0F804EB4401544A02EBC101C8600C985B
:1020900005F094F8CDE904010A9805F08FF80022C4
:1020A0004C4BCDE9000104F072FFCDE90201DDE9FE
:1020B000042304F0DEFF074605F093F804EB440127
:1020C000454A02EBC10108610C9805F077F8CDE9AB
:1020D00002010B9805F072F800223E4BCDE9000199
:1020E00004F055FF0746DDE9022304F0C2FFCDE905
:1020F000040105F076F804EB4401374A02EBC10114
:102100004861284803882648028800210846FEF7CF
:10211000EFFB4FF4FC60FEF75AFE30A6FEF748FED8
:1021200080881F49098891FBF0F8304604F060FE72
:10213000A8EB0000470820233A4621A11FA80096DB
:1021400005F09CF91749098848101FA9FEF7A3FD5F
:102150002748FFF7E8FB012039B0BDE8F08F1148B0
:1021600003880F48028800210846FEF7C1FB4FF4A0
:102170007840FEF72CFE1FA6FEF71AFE808808495D
:10218000098891FBF0F8304604F032FEA8EB00001D
:10219000470820233A460AA11FA833E00C0000207C
:1021A0002400002026000020546F756368204361DE
:1021B0006C696272617465202E2E2E2E2E2E000008
:1021C000252A632573000000252A6325640000008A
:1021D000E09304000000F03F4400002043616C697C
:1021E000627261746520537563636564000000006A
:1021F00040420F0043616C696272617465206661E0
:10220000696C0000009605F039F9C1490988481049
:102210001FA9FEF740FDBFA6FEF7CAFD8088C04992
:10222000098891FBF0F8304604F0E2FDA8EB0000CD
:10223000470820233A46AFF278011FA8009605F020
:102240001DF9FEF7B5FDC088B149098800EB6100B2
:1022500087B21FA93846FEF71EFDB248FFF763FBA1
:10226000002079E738B505460C4600200090FFF7BE
:1022700059F8012291026846FFF702FA9DF8000022
:10228000A52801D0012000E00020012C01D101216E
:1022900000E00021084308B39DF80000A52806D1FE
:1022A000012C04D1C022E1029F48FFF7E9F900BFE9
:1022B0002846FFF76AFD0028FAD00020FFF7EEF865
:1022C000A5200090012291026846FFF748F9C0223C
:1022D0004FF400619448FFF742F905E0C0224FF443
:1022E00000619148FFF7CCF938BD2DE9FC5F054648
:1022F0000C4601266846FFF794FB002865D0BDF91F
:10230000020004F025FF83468848007800EB400077
:1023100004EBC0004168584604F0C9FD8146BDF990
:10232000000004F015FF83468048007800EB400071
:1023300054F83010584604F0BAFD8246494604F07D
:102340005EFD80467948007800EB400004EBC00059
:102350008168404604F053FD074604F002FF00B2D6
:102360002880BDF9020004F0F3FE83466F48007830
:1023700000EB400004EBC0000169584604F097FDF3
:102380008146BDF9000004F0E3FE8346674800780B
:1023900000EB400004EBC000C168584604F087FD24
:1023A0008246494604F02BFD80466048007800EBE9
:1023B000400004EBC0004169404604F020FD0746A0
:1023C00004F0CFFE00B2688000E000263046BDE891
:1023D000FC9F10B500245648007820B1012811D088
:1023E00002283FD12FE01021524802F0CAFF20B945
:1023F00001204F490870002403E000204C49087078
:10240000002434E010214B4802F0BBFFA0B94A4839
:102410000068401C4849086008460068022806D940
:102420000020086002204249087001240AE00120CF
:102430003F490870002405E000203F4908603C49FE
:102440000870002413E010213A4802F09AFF20B9E6
:10245000022037490870012403E000203449087045
:10246000002404E0002032490870002400BF00BFAF
:10247000204610BD10B50446B4F90400401C20B934
:10248000B4F90400401C00B910BD628891B22288E2
:1024900090B200F04BFC00BFF6E710B50446B4F96B
:1024A0000400401C20B9B4F90400401C00B910BD60
:1024B000E28891B2A28890B200F0F1FC00BFF6E78A
:1024C00010B5FFF786FF012813D120201B490860B3
:1024D00015491B48FFF709FF00BF00BF1848FFF769
:1024E000C9FF174800881649888008464088C88078
:1024F0000DE020201149091F08601148FFF7CDFFAA
:102500004FF0FF300E49088048808880C88010BD99
:102510002600002074727920616761696E000000F6
:102520002400002040420F0044000020280000202A
:10253000050100200018014008010020140C014092
:102540000C01002070B59AB006460C461546AB4803
:10255000FEF72BFC4FF4FC60FEF739FC2B462246BD
:10256000A7A101A804F08AFF3046FEF736FC01A9B6
:102570003046FEF790FB1AB070BD70B5FEF718FC40
:102580000025A1A12846FEF786FBFEF711FCC588B1
:10259000A1480288A1A12846FFF7D4FFFEF708FC56
:1025A000C0884004050CA0480288A0A12846FFF777
:1025B000C9FFFEF7FDFBC08800EB40008004050C5E
:1025C0009DA12846FEF767FB4FF4FC60FEF7FFFB7A
:1025D0009D484078032802D0062843D127E00024F4
:1025E0000EE0FEF7E5FBC088E11C484385B2974842
:1025F00030F8142096A12846FFF7A4FF601CC4B24F
:102600009149887800EBD071B4EB610FE9DB924817
:10261000007858B1FEF7CCFBC088E11C484385B276
:102620008D4802788DA12846FFF78CFF1BE0FEF74E
:10263000BFFBC08800EB400085B28448428889A176
:102640002846FFF77FFF8448007850B1FEF7B0FBC3
:10265000C0888004050C8048027880A12846FFF7D6
:1026600071FF00E000BF00BF70BD70B5FEF7A0FBBA
:1026700000257EA12846FEF70EFBFEF799FBC588D4
:102680006548028865A12846FFF75CFFFEF790FBCE
:10269000C0884004050C6448028878A12846FFF7EA
:1026A00051FFFEF785FBC08800EB40008004050C5D
:1026B00061A12846FEF7EFFA4FF4FC60FEF787FBB6
:1026C00061484078032802D0062843D127E000243F
:1026D0000EE0FEF76DFBC088E11C484385B25B4805
:1026E00030F814205AA12846FFF72CFF601CC4B212
:1026F0005549887800EBD071B4EB610FE9DB56489F
:10270000007858B1FEF754FBC088E11C484385B2FD
:102710005148027851A12846FFF714FF1BE0FEF74D
:1027200047FBC08800EB400085B2484842884DA175
:102730002846FFF707FF4848007850B1FEF738FBFE
:10274000C0888004050C4448027844A12846FFF75D
:10275000F9FE00E000BF00BF70BD10B5FEF728FB1A
:10276000002449A12046FEF796FAFEF721FBC48813
:102770004948027849A12046FFF7E4FEFEF718FB1E
:10278000C0884004040C48A12046FEF784FAFEF7F6
:102790000FFBC08800EB400084B247A12046FEF743
:1027A0007AFA10BD10B51548FEF7FFFA00214FF474
:1027B0007840FEF700FB4448038844480288002123
:1027C0000846FEF795F84248007820B1012805D068
:1027D000022809D105E0FFF7C0FF0DE0FFF745FF34
:1027E0000AE0FFF7CAFE07E0FEF7E2FA002439A18B
:1027F0002046FEF750FA00BF00BF10BD14000020B5
:1028000025732564200000002020204D4F444255B0
:1028100053203036202020003A0000204144202060
:102820002B20202D202020003C00002056414C2051
:102830002B20202D202020002020202020202020A0
:102840002020202072657400C80F0020C8170020C7
:102850005245473A20000000360000204558435FAB
:10286000433A200056414C3A200000002020204DE1
:102870004F44425553203033202020004E756D20A8
:102880002B20202D2020200020204D4F4442555346
:1028900020484F4D452020003700002041643A2059
:1028A0002B20202D20202000303320203C2D53656C
:1028B0006C65637400000000303620203C2D5365A9
:1028C0006C656374000000002600002024000020D6
:1028D0001401002020506167652069732077726FB2
:1028E0006E67200010B5FC48007820B1012821D087
:1028F00002285DD13DE0002419E0F74A1278C2EBCE
:102900000212F64B03EBC20204EB440302EBC300DA
:10291000F14A1278C2EB0212F04B03EBC20204EB55
:10292000440302EBC30211698847601CC4B2042C43
:10293000E3DB3EE0002419E0E74A1278C2EB021222
:10294000E64B03EBC20204EB440302EBC300E24A92
:102950001278C2EB0212E14B03EBC20204EB440318
:1029600002EBC30211698847601CC4B2052CE3DB8B
:102970001FE0002419E0D84A1278C2EB0212D74BAC
:1029800003EBC20204EB440302EBC300D24A127809
:10299000C2EB0212D14B03EBC20204EB440302EB85
:1029A000C30211698847601CC4B2052CE3DB00E058
:1029B00000BF00BF10BD0021C74A1170704701461B
:1029C0007047C7490988491EC54A11807047C449E4
:1029D0000988491CC24A11807047C2490988491EAA
:1029E000C04A11807047BF490988491CBD4A1180FF
:1029F0007047BD490978491EBB4A11707047BA49F2
:102A00000978491CB84A1170704710B50446022075
:102A1000B14908700620B5490870FFF763FF10BD83
:102A200010B504460120AC4908700320AF49087076
:102A3000FFF758FF10BD0020A849088030204880CB
:102A400088804820C8804CF2186088600020087395
:102A5000A7480861A74848610020088348219F488B
:102A60004183302181836021C1834CF2186101626E
:102A7000002180F824109E4981629F49C162302064
:102A80009649088618219548418660218186302123
:102A9000C1864CF218618163002180F83C10944992
:102AA00001649649416460208C49A1F848001821CE
:102AB0008A48A0F84A109021A0F84C103021A0F8C4
:102AC0004E104CF218610165002180F854108849BD
:102AD00081658B49C16530208049A1F878001821B3
:102AE0007E48A0F87A106021A0F87C103021A0F870
:102AF0007E104CF21861C0F88010002180F884101C
:102B00007B49C0F888107F49C0F88C106021A0F87C
:102B100090101821A0F892109021A0F89410302164
:102B2000A0F896104CF21861C0F89810002180F8B7
:102B30009C106F49C0F8A0107349C0F8A410302150
:102B4000A0F8A810A0F8AA106021A0F8AC104821A5
:102B5000A0F8AE104CF21861C0F8B010002180F857
:102B6000B4106349C0F8B8106849C0F8BC106021BF
:102B7000A0F8C0103021A0F8C2109021A0F8C41015
:102B80004821A0F8C6104CF21861C0F8C810002106
:102B900080F8CC105649C0F8D0105D49C0F8D41068
:102BA000C021A0F8D8104FF49071A0F8DA10F021ED
:102BB000A0F8DC104FF49C71A0F8DE104CF2186104
:102BC000C0F8E010002180F8E4104949C0F8E8108E
:102BD0005049C0F8EC1030204049A1F8F00018210D
:102BE0003E48A0F8F2106021A0F8F4103021A0F8BF
:102BF000F6104CF21861C0F8F810002180F8FC10B3
:102C00003B49C0F800113F49C0F804116021A0F809
:102C100008111821A0F80A119021A0F80C113021F8
:102C2000A0F80E114CF21861C0F81011002180F8C4
:102C300014112F49C0F818113349C0F81C11302164
:102C4000A0F82011A0F822116021A0F82411482139
:102C5000A0F826114CF21861C0F82811002180F864
:102C60002C112349C0F830112849C0F834116021D3
:102C7000A0F838113021A0F83A119021A0F83C11A9
:102C80004821A0F83E114CF21861C0F84011002113
:102C900080F844111649C0F848111D49C0F84C117C
:102CA000C021A0F850114FF49071A0F85211F021FA
:102CB000A0F854114FF49C71A0F856114CF2186111
:102CC000C0F85811002180F85C110949C0F8601162
:102CD0001049C0F86411704714010020981F0020AB
:102CE0003C0000203A00002037000020380000207F
:102CF000BF290008212A00080B2A0008FF29000824
:102D0000F3290008E7290008DB290008CF2900087B
:102D1000C3290008B729000810B504462046FDF76E
:102D200015FDFFF788FEFFF7DDFD10BD2DE9F04131
:102D300006460F46A248007820B1012804D0022898
:102D400006D103E0042503E0052501E0052500BFC9
:102D500000BF00249EE09A480078C0EB001099491B
:102D600001EBC00004EB440100EBC1008088B042DD
:102D70005BDB93480078C0EB0010924901EBC00088
:102D800004EB440100EBC100C088B8424DDB8C4825
:102D90000078C0EB00108B4901EBC00004EB44014C
:102DA00000EBC1004088B8423FDC85480078C0EBAA
:102DB0000010844901EBC00004EB440130F83100FD
:102DC000B04232DC7E480078C0EB00107D4901EB58
:102DD000C00004EB440100EBC100007B20BB0120DC
:102DE00077490978C1EB0111764A02EBC10104EB86
:102DF000440201EBC2010873714A1278C2EB02125D
:102E0000704B03EBC20204EB440302EBC3006C4AB9
:102E10001278C2EB02126B4B03EBC20204EB4403C9
:102E200002EBC3021169884732E065480078C0EBC5
:102E30000010644901EBC00004EB440100EBC10049
:102E4000007B012824D100205D490978C1EB0111E4
:102E50005C4A02EBC10104EB440201EBC2010873BE
:102E6000574A1278C2EB0212564B03EBC20204EB34
:102E7000440302EBC300524A1278C2EB0212514BD8
:102E800003EBC20204EB440302EBC302116988475F
:102E9000601CC4B2AC42FFF65EAFBDE8F0812DE924
:102EA000F04106460F464648007820B1012804D07C
:102EB000022806D103E0042503E0052501E00525ED
:102EC00000BF00BF002476E03D480078C0EB001052
:102ED0003C4901EBC00004EB440100EBC1008088D9
:102EE000B04266DD36480078C0EB0010354901EB92
:102EF000C00004EB440130F83100B04259DA3048E8
:102F00000078C0EB00102F4901EBC00004EB440136
:102F100000EBC100C088B8424BDD29480078C0EB07
:102F20000010284901EBC00004EB440100EBC10094
:102F30004088B8423DDA002021490978C1EB0111EF
:102F4000204A02EBC10104EB440201EBC201087309
:102F50001B4A1278C2EB02121A4B03EBC20204EBBB
:102F6000440302EBC300164A1278C2EB0212154B5F
:102F700003EBC20204EB440302EBC302116988476E
:102F80000F4A1278C2EB02120E4B03EBC20204EBA3
:102F9000440302EBC3000A4A1278C2EB0212094B47
:102FA00003EBC20204EB440302EBC30251698847FE
:102FB00003E0601CC4B2AC4286DB00BFBDE8F08118
:102FC00014010020981F0020704770477047704719
:102FD0007047704770B5044610464FF08075056025
:102FE000051F28462C606FF00106051F28462E603D
:102FF0004FF01236051F28462E604FF00336051F8E
:1030000028462E604FF00236051F28462E607610A7
:10301000051F28462E60051F284629604FF01136EF
:10302000051F28462E604FF01036051F28462E60DB
:103030004FF00936051F28462E604FF00836051F51
:1030400028462E604FF00736051F28462E604FF0A9
:103050000636051F28462E604FF00536051F284608
:103060002E604FF00436051F28462E6070BD704755
:103070007047704710B500F011F804460648007814
:10308000401C05490870204600F00CF800F041FB98
:1030900000F015FA10BD70472D010020EFF31080ED
:1030A00072B6704780F3108870471D484FF0FF01DB
:1030B0000170002080F309881A48012101701A4824
:1030C0004FF08051016062B6FEE717484FF0805123
:1030D0000160704714484FF080510160704772B62C
:1030E000EFF3098028B1203880E8F00F0F49096814
:1030F000086000B50E4880475DF804EB0D480E49A6
:103100000A78027009480D490A680260106890E860
:10311000F00F203080F309884EF0040E62B670473D
:1031200022ED00E03A01002004ED00E04001002023
:103130006F3000082F0100203001002048010020DE
:103140000146002002E0491C421CD0B20A78002A45
:10315000F9D170472DE9F04105460E461446002787
:10316000FE48007820B1112020700020BDE8F081D9
:103170002878012808D0022807D0032802D0042884
:1031800004D100E000BF00BF00BF03E001202070B9
:103190000020EBE700BFFFF781FF0746686930605A
:1031A0003068FFF7CDFF80463846FFF77BFF0020F1
:1031B00020704046DAE72DE9F04105460E461446F8
:1031C0000027E648007818B112202070BDE8F08191
:1031D0002878012808D0022807D0032802D0042824
:1031E00004D100E000BF00BF00BF02E0012020705A
:1031F000ECE700BFFFF752FF07466E613846FFF766
:1032000051FF0020207000BFE0E77CB5002514E0EE
:103210006946284601F0FFF8064666B9D04850F8DE
:10322000254044B1012C06D0D4E9020100EB810015
:10323000E06301982064681CC5B23F2DE8D97CBDCD
:10324000002400BF02E0142001F0EEF9C548007828
:103250000028F8D0C44800686421B0FBF1F0C249EE
:1032600008600846006828B90020C0490870FF209F
:1032700001F013F900BFFFF711FF0446BC480068D6
:10328000BC4908600020BA4908602046FFF70AFFE1
:10329000B8480068B4490968B0FBF1F0C0F16400B7
:1032A000B2490870FFF795FEFFF7AFFF0A2001F063
:1032B000BBF9E0E700B587B0032000218022AE4BC8
:1032C000CDE90132CDE903104FF6FE703E23AB4A43
:1032D0000090AFF2930000F0BEFE06AAA8A13E2027
:1032E00001F01BF807B000BD002400BF00BFFFF7CE
:1032F000D5FE04469E480068401C9D490860204653
:10330000FFF7D0FEFFF764FEF1E700B587B00320BA
:10331000002180229E4BCDE90132CDE903104FF60A
:10332000FF703F239B4A0090AFF2430000F093FEF2
:1033300006AA99A13F2000F0F0FF07B000BD04E00D
:10334000002200F8012B4A1E91B20029F8D17047E3
:1033500070B5F0219448FFF7F2FF002411E0601CE3
:1033600085B204EB4400904901EBC00305EB450036
:1033700001EBC006002018705E608CA05861601CD4
:1033800084B2092CEBD304EB4400874901EBC00362
:1033900000201870586085A058610846844908606C
:1033A00070BD70B54FF4D1618248FFF7C8FF4FF48C
:1033B00080716B48FFF7C3FF002413E0601CC5B2A7
:1033C00004EB440000EB04107A4901EB800305EBA9
:1033D000450000EB051001EB80065E6173A05864A8
:1033E000601CC4B2152CE9D304EB440000EB0410BC
:1033F000704901EB8003002058616CA058640020E4
:103400006D4908606B486D49086070BD00216C4AC9
:103410001170002004E000216A4A1154411CC8B216
:103420000828F8D30021684A1170684A1170684A68
:103430001160684A11607047002067490860474979
:1034400008706649087066490870664908706649E0
:103450000860474908604749086043490860414996
:103460000870704710B5FFF7AFFDFFF7E5FFFFF7F6
:10347000CDFFFFF796FFFFF76BFFFFF746FFFFF764
:1034800019FFFFF7A2FD10BD56480078012808D1AA
:1034900032480078FF2804D230480078401C2F4979
:1034A000087070475149464A1278885C4549095C62
:1034B0004E4A515C01EBC001444A1170704710B58F
:1034C000002448480078012830D1FFF7E7FD044682
:1034D0002248007820B121480078401E1F4908701A
:1034E0001E480078F8B93D480078E0B9FFF7DAFFE8
:1034F0001B483649097850F821003549086033489F
:1035000000783149097888420DD031480068006B55
:10351000401C2F490968086333480068401C324941
:103520000860FFF7D7FD2046FFF7BCFD10BD10B5C2
:1035300000242C48007801285ED1FFF7AFFD044637
:103540000648007840B925480078FF2851D2234822
:103550000078401C21494BE04BE000002D01002089
:10356000F02500202C010020240100202001002053
:103570003C01002028010020F0210020EC23002045
:1035800075432F4F532D4949205374617400000037
:10359000F0230020EC25002075432F4F532D49497F
:1035A0002049646C65000000002100203F000000FD
:1035B0001C010020F02600204C01002044010020C6
:1035C00031010020320100202F01002030010020B5
:1035D0004801002040010020540100202E0100205D
:1035E0003B0100203A0100201801002070B50008BE
:1035F00008702046FFF756FD10BD10B50024FFF7F8
:103600004DFD0446FD480078F8B9FD480078E0B962
:10361000FFF748FFFB48FC49097850F82100FB49B7
:103620000860F9480078FA49097888420DD0F748CF
:103630000068006B401CF54909680863F54800689C
:10364000401CF4490860FFF740FD2046FFF72AFDC3
:1036500010BD10B50024F0480078012821D1FFF7F3
:103660001DFD0446E6480078C0B1E5480078401EDC
:10367000E34908700846007860B9E048007828B946
:103680002046FFF70FFDFFF7B8FF0AE02046FFF7DF
:1036900009FD06E02046FFF705FD02E02046FFF7A2
:1036A00001FD10BD10B5DC48007890B9FFF7FAFEB7
:1036B000D5480078D6490870D248D349097850F8DF
:1036C0002100D249086008460068D4490860FFF725
:1036D000ECFC10BD10B50024022000F0A5FFFFF7A0
:1036E000DDFC04460020CE4908602046FFF7DAFCE6
:1036F0000A2000F099FFFFF7D1FC0446C848006893
:10370000C84908600120C84908702046FFF7CAFC74
:1037100010BD70B50026FFF7ACFCFFF7BFFC0646F6
:10372000C2480068401CC14908603046FFF7BAFC37
:10373000B9480078012853D1BD48007820B101284C
:1037400004D0022809D103E001250BE0002509E09F
:1037500001250120B649087004E001250020B44984
:10376000087000BF00BF05B970BDB248046833E0FF
:10377000FFF794FC0646606A50B3606A401E6062C0
:10378000606A28BB94F8280000F0370040B114F8B4
:10379000280F00F0C800207001206070283C02E073
:1037A000002084F8290094F8280000F0080078B977
:1037B0002C34A078A049097808439F4908702078E4
:1037C0009E49085C6178084314F82C199B4A5054B0
:1037D00064693046FFF766FC94F82A003F28C7D199
:1037E00000BFC1E740F223107047704710B590F852
:1037F0002C2001F10B039B5C90F82D40A34301F1B9
:103800000B04A35423469B5C23B98B7A90F82E407B
:10381000A3438B7210BD2DE9F04F05460F4690462D
:103820009946A87A86490E5C05F10B00805D11F877
:1038300000B00BEBC60000F0FF0A724850F82A40B7
:103840000020203460602760207A20EA080020727F
:1038500084F80990207A203C00F0080068B994F8B8
:103860002E00754909780843734908707348805DD4
:1038700094F82D1008437149885529462046FFF7D2
:10388000B5FF5046BDE8F08F10B5644A1268D061AC
:10389000624A126892F82C3000F10B02D25C5F4B46
:1038A0001B6893F82D301A435C4B1B6893F82C402F
:1038B00000F10B031A55827A584B1B6893F82E308F
:1038C0001A438272554A126892F82C105B4A525C75
:1038D000524B1B6893F82D309A43584B5A541A4652
:1038E000525C42B94D4A126892F82E30524A127810
:1038F0009A43514B1A7010BD014600228A72002073
:1039000005E0002301F10B021354421CD0B2082839
:10391000F7D3704705E011F8013B00F8013B531E57
:103920009AB2002AF7D170472DE9F84F05460F46A5
:1039300090469946DDE90AAB00200090FFF7AEFB08
:10394000009040480468002C7ED010343D496068E7
:1039500008600098FFF7A6FB44F8107CA5760020CD
:1039600020766076606144F80CBC44F804AC44F8FE
:10397000088C0C982080A4F802900020E077E810D2
:10398000207705F00700E076217F01208840A077AE
:10399000E17E0120884060770020E06020612062A5
:1039A000A0626062E0622063AFF200406063103C9E
:1039B000002606E0002104F1480040F82610701CA3
:1039C000C6B2002EF6D02046FFF752FB2046FFF786
:1039D000FDFAFFF763FB00900A4840F825401548C0
:1039E000006860610020A0611248006810B11148B1
:1039F000006884610F4804602C3426E02D0100200B
:103A00002E010020F0250020300100204801002078
:103A10002F010020180100203A0100204001002061
:103A20003C010020240100202C0100205401002032
:103A3000500100204C010020310100203201002003
:103A400070B500084401002019E0A0780E490978FB
:103A500008430D49087020780C49085C61780843D8
:103A600014F82C19094A505409480078401C084998
:103A700008700098FFF716FB0020BDE8F88F00984B
:103A8000FFF710FB4220F8E731010020320100204F
:103A90003B01002070B5044600262078012801D0A3
:103AA000002070BDFFF7FAFA0646656800206060E6
:103AB0003046FFF7F7FA2846F3E770B505460026CB
:103AC000E748007808B1002070BDFFF7E7FA064626
:103AD000E4480468006820B1E24800684068E149B1
:103AE00008603046FFF7DEFA4CB10120207000205C
:103AF00020816560DCA060612046FFF7FDFE204666
:103B0000E2E72DE9F0470446884615464FF00009E4
:103B10002078012804D0012028702046BDE8F087D5
:103B2000CF48007818B10F2028702046F6E7FFF73D
:103B3000B5FA8146A07A08B1012700E00027B8F164
:103B4000000F03D0B8F1010F3AD119E08FB9C6A028
:103B5000606100202070C348006860600020208100
:103B6000C04804604846FFF79DFA002028700026F0
:103B700005E04846FFF796FA49202870264626E0D9
:103B800005E00023022219462046FFF744FEA07AF2
:103B90000028F6D1B4A0606100202070B148006810
:103BA000606000202081AF4804604846FFF77AFA41
:103BB000012F01D1FFF721FD00202870002606E02B
:103BC0004846FFF76FFA07202870264600BF00BF5F
:103BD0003046A3E72DE9F04105460F4614464FF065
:103BE00000082878012804D0012020700020BDE8BA
:103BF000F0819B48007818B1022020700020F6E781
:103C00009A48007818B10D2020700020EFE7FFF7E8
:103C100045FA80466E6846B1002068604046FFF76E
:103C200041FA002020703046E1E79148006890F8A2
:103C3000280040F002008E49096881F82800002021
:103C40008B49096881F8290089480068476228463D
:103C5000FFF71AFE4046FFF725FAFFF7CEFCFFF705
:103C60001DFA80468248006890F8290020B101289A
:103C70000DD002280AD105E07D480068066A0020C0
:103C800020700DE000260E20207009E000BF2946BC
:103C900077480068FFF7AAFD00260A20207000BFC1
:103CA00000BF00207249096881F82800704909683E
:103CB00081F829006E490968C8616D490968086280
:103CC0004046FFF7EFF9304691E72DE9F041044611
:103CD0000F4615464FF000082078012804D0012037
:103CE00028700020BDE8F081FFF7D8F98046A07A5F
:103CF00020B300267FB1012F0CD107E002231A4622
:103D000000212046FFF787FD701CC6B2A07A00286C
:103D1000F4D109E000BF02231A4600212046FFF734
:103D20007AFD701CC6B200BF00BF4046FFF7BAF96B
:103D3000FFF763FC0E2028703046D3E74046FFF7BC
:103D4000B1F90020287000BFCCE770B504460D46DD
:103D500000262078012801D0012070BDFFF79EF9D0
:103D60000646A07A60B10023022229462046FFF7CA
:103D700052FD3046FFF796F9FFF73FFC0020ECE7D5
:103D8000606820B13046FFF78DF91420E5E76560E3
:103D90003046FFF787F90020DFE72DE9F0410446C0
:103DA0000E46154600272078012802D00120BDE8E4
:103DB000F081FFF773F90746A07AE8B105F001003A
:103DC00050B105E00023022231462046FFF723FDD3
:103DD000A07A0028F6D105E00023022231462046D1
:103DE000FFF719FD3846FFF75DF905F0040008B943
:103DF000FFF703FC0020DAE7606820B13846FFF7E0
:103E000051F91420D3E766603846FFF74BF90020DC
:103E1000CDE72DE9F04704460D464FF00009207824
:103E2000012802D00120BDE8F087FFF737F981466D
:103E3000A07A287304F10B0705F10408002605E0B9
:103E400017F8010B08F8010B701CC6B2082EF7D347
:103E5000606828604846FFF725F90020E3E7000086
:103E60002D0100201C0100203F0000002E01002039
:103E7000400100202DE9FF5F814688460020009028
:103E8000FFF70CF90090F94850F8280030B100987D
:103E9000FFF708F9282004B0BDE8F09FB9F1FF0F43
:103EA00003D1F348006890F82A90F04850F8294070
:103EB00024B90098FFF7F6F82920ECE7012C04D18B
:103EC0000098FFF7EFF84320E5E74FEAE80708F02E
:103ED000070003900120B84000F0FF0A0121039879
:103EE000814001F0FF0B0020E04941F8290008461D
:103EF00040F8284014F82C6FA078029060782C3C91
:103F00000190DC48815D01980140D1B1D948805DC4
:103F100001998843D74988550846805D28B9D64815
:103F2000007802998843D4490870D348007840EA61
:103F30000A00D1490870CF48C05D40EA0B00CD4966
:103F4000C855E569D5B105F10B00805D019988433D
:103F500005F10B0188550846805D18B9A87A0299C9
:103F60008843A872A87A40EA0A00A87205F10B00FB
:103F7000C05D40EA0B0005F10B01C85584F82A80AA
:103F800084F82C70039884F82B0084F82EA084F811
:103F90002DB00098FFF786F8B8480078012801D1C5
:103FA000FFF72BFB002076E72DE9FE4F06460F4674
:103FB00090461C464FF00009FFF770F88146B04864
:103FC000007828B14846FFF76DF83C20BDE8FE8F29
:103FD000A64850F8240060BB0120A44941F8240001
:103FE0004846FFF75FF80023424639463046FEF761
:103FF000F1FF8246002000900190034602465146A0
:1040000002902046FFF790FC054635B99B480078A2
:1040100001280CD1FFF7F1FA09E0FFF73FF88146DC
:104020000020924941F824004846FFF73BF8284613
:10403000CCE74846FFF736F82820C7E702F001032F
:1040400043B102F002032BB102E0491E002308C075
:104050000029FAD170472DE9F04F85B081468A4694
:1040600093461C46DDE90F78129D00200390FFF770
:1040700015F803908248007830B10398FFF712F8E2
:104080003C2005B0BDE8F08F784850F8240088BB8C
:104090000120764941F824000398FFF703F82A46E7
:1040A00041463846FFF7CAFF2B465A465146484616
:1040B000FEF790FF04901198CDE9008002953A46F2
:1040C00020460E9B0499FFF72FFC064636B96B4835
:1040D000007801280CD1FFF790FA09E0FEF7DEFF27
:1040E00003900020614941F824000398FEF7DAFFAD
:1040F0003046C6E7FFE70398FEF7D4FF2820C0E765
:1041000070B5054600265E48007808B1402070BDB5
:104110003F2D01D13E20FAE7FEF7C0FF0646FF2DF6
:1041200003D15348006890F82A50504850F8254071
:1041300024B93046FEF7B6FF4320E8E7012C04D14E
:104140003046FEF7AFFF3D20E1E714F82C0F494958
:10415000085C617888432178464A505414F82C0949
:104160001146085C30B994F82E1043480078884313
:1041700041490870E06918B12046E169FFF736FB54
:104180000020606284F8280084F829003D48007807
:10419000FF2804D23B480078401C3A49087030465A
:1041A000FEF780FFFFF721FBFEF778FF0646354854
:1041B000007820B133480078401E3249087020460C
:1041C000FEF705FF30480078401E2F490870002098
:1041D000264941F82500A06930B90020616988614D
:1041E0002A496069086005E0D4E905014861D4E91D
:1041F000051088612648006860612548046025A094
:1042000060643046FEF74EFF1C480078012801D15B
:10421000FFF7F3F900207AE72DE9F0410446002783
:104220003F2C02D13E20BDE8F081FF2C0BD1FEF7E0
:1042300035FF07460E48006890F82F603846FEF7B5
:1042400031FF3046EFE7FEF729FF0746074850F8F1
:10425000245025B93846FEF725FF4320E3E7012D1A
:104260001AD13846FEF71EFF3D20DCE7F02500207E
:104270004001002032010020310100203A010020DD
:104280002D0100202E0100203B0100204C010020C8
:10429000440100203F0000003F2085F82F003846F1
:1042A000FEF700FF0020BEE72DE9F04706460F4667
:1042B00014464FF00008D648007820B11120207035
:1042C0000020BDE8F087FEF7E9FE8046FF2E03D10F
:1042D000D048006890F82A60CF4850F8265035B989
:1042E0004046FEF7DFFE432020700020E9E7012D65
:1042F00006D14046FEF7D6FE432020700020E0E7BE
:10430000686C38603868FEF71BFF81464046FEF750
:10431000C9FE002020704846D3E72DE9F04106464B
:104320000F4614464FF00008B948007818B1122023
:104330002070BDE8F081FEF7B1FE8046FF2E03D16C
:10434000B448006890F82A60B34850F826502DB958
:104350004046FEF7A7FE43202070EAE7012D05D175
:104360004046FEF79FFE43202070E2E76F64404620
:10437000FEF798FE0020207000BFDAE770B5054612
:104380000026FEF78BFE0646A34850F8254024B9C8
:104390003046FEF787FE462070BD012C04D1304622
:1043A000FEF780FE4320F7E794F8280000F00800AD
:1043B00060B314F8280F00F0F700207014F82809F3
:1043C000F8B9606AC8B92C34A078944909780843D0
:1043D0009249087020789249085C6178084314F883
:1043E0002C198F4A50543046FEF75CFE8D480078F9
:1043F000012809D1FFF701F906E03046FEF752FE29
:1044000002E03046FEF74EFE0020C5E73046FEF7DC
:1044100049FE4420C0E72DE9F04707460D464FF01E
:10442000000A002028606860FEF738FE8246FF2FF1
:1044300003D17848006890F82A70774850F82740F0
:104440002CB95046FEF72EFE4320BDE8F087012C24
:1044500004D15046FEF726FE4320F6E7207C00F00C
:10446000010020B95046FEF71DFE4520EDE700266D
:10447000D4F80C90D4F808805046FEF713FE00E004
:10448000761C58F8041B0029FAD0B0002860A9EB6C
:104490000600800068600020D7E72DE9F04105465E
:1044A0004FF00008FEF7FAFD8046FF2D05D1594870
:1044B000006890F82A50012608E05648006890F8F5
:1044C0002A00A84201D1012600E00026524850F8F7
:1044D00025402CB94046FEF7E5FD4820BDE8F081B7
:1044E000012C04D14046FEF7DDFD4320F6E794F8A9
:1044F0002C704B48C05D94F82D1088434849C8552E
:104500000846C05D30B994F82E10444800788843BE
:104510004249087094F8280040F0080084F8280008
:104520004046FEF7BFFD012E01D1FFF766F80020DF
:10453000D4E72DE9F04105460E460027FEF7AEFD13
:104540000746FF2D03D13348006890F82A503248BF
:1045500050F825402CB93846FEF7A4FD2920BDE8C7
:10456000F081012C04D13846FEF79CFD4320F6E78C
:104570004C2221463046FFF7CDF93846FEF792FD32
:104580000020ECE72DE9F04704460E4617464FF0B1
:104590000009FEF783FD8146FF2C02D11D48056806
:1045A00002E01D4850F8245005F1480050F82680DC
:1045B0004846FEF777FD002038704046BDE8F0879A
:1045C0002DE9F04704460E46174698464FF000097D
:1045D000FEF764FD8146FF2C02D10E48056802E01B
:1045E0000D4850F8245005F1480040F82670484620
:1045F000FEF758FD002088F80000BDE8F08710B5F0
:1046000004480068FEF747FDFF20FFF779FD10BD65
:104610002D01002040010020F02500203101002064
:10462000320100203A01002070B50546002663489B
:10463000007800B170BD6248007800B1FAE71DB3A0
:10464000FEF72CFD06465F48006890F82C405E4857
:10465000005D5C49096891F82D1088435A49085556
:104660000846005D40B95748006890F82E1057483A
:1046700000788843554908705248006845623046C2
:10468000FEF710FDFEF7B9FF00BFD3E72DE9F041BB
:1046900004460D4616461F464848007810B155207E
:1046A000BDE8F0814648007808B13220F8E7781D6F
:1046B000642148434FF47A71B0FBF1F14FF461602B
:1046C0006043C5EB051200EB8200304400EBC002F2
:1046D00002EB001001EB80084046FFF7A5FF002029
:1046E000DEE770B5054600263F2D01D32A2070BDB8
:1046F000FEF7D4FC0646364850F8254024B930462B
:10470000FEF7D0FC4320F2E7012C04D13046FEF73F
:10471000C9FC4320EBE7606A20B93046FEF7C2FCD3
:104720005020E4E70020606294F8280000F0370091
:1047300040B114F8280F20F037002070012060707D
:10474000283C02E0002084F8290094F8280000F0BA
:104750000800A8B92C34A0781C49097808431B49E3
:10476000087020781849085C6178084314F82C19FF
:10477000154A50543046FEF795FCFEF73EFF02E026
:104780003046FEF78FFC0020B1E770B50025FEF73C
:1047900085FC05460F4804682846FEF783FC204642
:1047A00070BD70B504460025FEF778FC0546094843
:1047B00004602846FEF776FC70BD00002D01002045
:1047C0002E01002040010020320100203101002094
:1047D000F02500205401002010B5FBF778FDFEF70E
:1047E00041FE0323044A00210448FFF7DDFBFEF7E6
:1047F00059FF002010BD0000B42E0020EB0100087E
:10480000704700BFFEE700BFFEE700BFFEE700BF46
:10481000FEE770477047704710B5FEF735FEFEF7AC
:1048200078FFFEF74CFE10BD08B5FEF72DFE40F2F6
:1048300025511A4802F086FA48B1184802F002FAE7
:10484000C0B20090694616480068FFF77EFAFEF78E
:1048500036FE08BD10B5FEF717FE0121114802F023
:104860009CF8C0B101210F4802F0A8F80E4800687A
:10487000401C0D4908600846006807280BD9002134
:10488000202000F0B4FF00200749086001210748FC
:104890000068FFF75AFAFEF712FE10BD003801401B
:1048A00000000020001400405801002004000020F7
:1048B0000648804706480047FEE7FEE7FEE7FEE7BA
:1048C000FEE7FEE7FEE7FEE7FEE7FEE7B349000886
:1048D000310100080CB50020019000906C48006880
:1048E00040F480306A49086000BF6948006800F4FD
:1048F000003000900198401C0190009818B9019870
:10490000B0F5A06FF1D16248006800F4003010B13A
:104910000120009001E0002000900098012843D180
:104920005C48006840F010005A490860084600687A
:1049300020F0030008600846006840F002000860AC
:1049400053484068524948600846406848600846F5
:10495000406840F4806048600846406820F47C105D
:1049600048600846406840F4E8104860084600681F
:1049700040F08070086000BF4548006800F000709B
:104980000028F9D04248406820F0030040494860C0
:104990000846406840F00200486000BF3C4840685C
:1049A00000F00C000828F9D10CBD10B5FFF792FFFC
:1049B00010BD10B53648006840F001003449086069
:1049C0000846406834490840314948600846006854
:1049D000324908402E4908600846006820F48020CB
:1049E00008600846406820F4FE0048604FF41F004D
:1049F0008860FFF7DAFF4FF000602949086010BDBA
:104A000010B5002100200022214B5B6803F00C014F
:104A100021B1042906D0082928D107E0214B224CD6
:104A2000236027E01F4B204C236023E0184B5B687A
:104A300003F47010164B5B6803F48032022303EB1F
:104A4000904022B9194B4343174C23600DE0104BA3
:104A50005B6803F4003323B1144B4343124C2360CF
:104A600003E0104B4343104C236003E00D4B0E4C0E
:104A7000236000BF00BF064B5B68C3F303130C4CFD
:104A8000E15C094B1B68CB40074C236010BD000064
:104A900000100240002002400000FFF8FFFFF6FE79
:104AA00008ED00E000127A005C01002000093D00E2
:104AB0006001002031490143314A1160704770B5EF
:104AC000002100230F22C47804B32D4C246804F481
:104AD000E064C4F5E064210AC1F10403CA404478EB
:104AE00004FA03F18478144021430901254C067827
:104AF000A155047804F01F050124AC4005786D1120
:104B0000AD0005F1E025C5F8004109E0047804F0A6
:104B10001F050124AC401C4D0678761145F826404F
:104B200070BD1A4A0A400243154B1B1F1A6070479A
:104B300039B1134A121D12680243114B1B1D1A6032
:104B400006E00F4A121D126882430D4B1B1D1A60AE
:104B50007047042808D14FF0E021096941F00401B1
:104B60004FF0E022116107E04FF0E021096921F0E8
:104B700004014FF0E0221161704700000000FA05C7
:104B80000CED00E000E400E080E100E080FFFF1FAA
:104B900030B943F2DB028100A1F1C0410A6005E0B7
:104BA00043F2D2028100A1F1C0410A606FF070426D
:104BB000411C8900A1F1C0410A608100A1F1C041FE
:104BC000C1F80421704710280AD118214FF0204263
:104BD0001166402151664FF0FC319166D16610E0BC
:104BE0001821F74A116040214FF02042C2F884108A
:104BF0004FF0FC31F24A083211604FF02042C2F807
:104C00008C1070471820EE492031086000200906FA
:104C1000C1F8A4004FF0FC30E94928310860091DB3
:104C20000860091D08607047D0E901121143C2688D
:104C30001143026911434269114382691143C269F8
:104C40001143026A1143426A1143826A1143C26AE4
:104C50001143026B114302689200A2F1C04211603D
:104C6000816808290BD101688900A1F1C041096858
:104C700041F0400201688900A1F1C0410A60416B26
:104C80000968426B526841EA0211426B926841EA3C
:104C90000221426B928941EA0241426B128A41EA47
:104CA0000251426B127D41EA0261426B92691143EB
:104CB0000268521C9200A2F1C0421160C16AB1F5B3
:104CC000804F1BD1816B0968826B526841EA0211E7
:104CD000826B926841EA0221826B128A41EA025198
:104CE000826B127D41EA0261826B92691143026814
:104CF0009200A2F1C042C2F8041107E06FF07042C6
:104D000001688900A1F1C041C1F80421704730B5A4
:104D1000002100220023446844F0080485682C43E5
:104D2000C5682C4305692C43456944EA45248569D7
:104D300044EA4531C4692468C5696D6844EA0524BC
:104D4000C5692D8944EA0544C5692D7B44EA05629D
:104D5000046A2468056A6D6844EA0524056A2D8999
:104D600044EA0544056A2D7B44EA05630468102C77
:104D700005D14FF020442166A266E36608E0904C1E
:104D800021604FF02044C4F888208D4C0C342360FF
:104D900030BD016841F01001426841EA4221826859
:104DA00041EA4231864A20321160C1680968C2680E
:104DB000526841EA0221C268128941EA0241C2688E
:104DC000127B41EA02617E4A28321160016909685A
:104DD0000269526841EA02210269128941EA0241EC
:104DE0000269127B41EA0261754A2C321160416905
:104DF00009684269526841EA02214269128941EA1E
:104E000002414269127B41EA02614FF02042C2F83E
:104E1000B0107047002101600221416000218160D3
:104E2000C160016141618161C16101624FF48051E2
:104E30004162490081620021C16201630F21426B1E
:104E40001160426B5160FF21426B91600F21426BF8
:104E5000D160426B1161426B51610021426B9161E3
:104E60000F21826B1160826B5160FF21826B916018
:104E70000F21826BD160826B1161826B51610021C5
:104E8000826B916170471021016000214160816057
:104E9000C160016141618161FC21C2691160C26927
:104EA0005160C2699160C269D160026A1160026A90
:104EB0005160026A9160026AD1607047002101600E
:104EC00041608160FC21C2681160C2685160C268A3
:104ED0009160C268D1600269116002695160026923
:104EE00091600269D1604269116042695160426912
:104EF00091604269D160704751B18200A2F1C04215
:104F0000126842F001038200A2F1C042136009E07E
:104F10008200A2F1C04212682A4B1A408300A3F11A
:104F2000C0431A60704799B1102808D14FF0204251
:104F3000126E42F004024FF020431A661DE0204A30
:104F4000126842F004024FF02043C3F8802014E0BE
:104F5000102809D14FF02042126E1A4BDB1E1A4066
:104F60004FF020431A6608E0154A1268154BDB1E05
:104F70001A404FF02043C3F88020704748B11049D1
:104F80002031096841F004014FF02042C2F8A0101E
:104F900009E00B49203109680A4AD21E11404FF03E
:104FA0002042C2F8A0107047B9B110280CD14FF0C0
:104FB0002042126E42F040024FF020431A661FE07A
:104FC000800000A0FEFF0F00724A126842F040020B
:104FD0004FF02043C3F8802012E0102808D14FF092
:104FE0002042126E6C4B1A404FF020431A6607E0C5
:104FF000684A1268684B1A404FF02043C3F880207B
:10500000704701460020102903D14FF02042506F15
:1050100002E0604A14321068704710B5F2B11028EF
:1050200007D14FF020435B6E0B434FF02044636683
:1050300032E0B0F5807F08D1564B1B1D1B680B4337
:105040004FF02044C4F8843026E0524B24331B68D0
:105050000B434FF02044C4F8A4301DE0102807D1C2
:105060004FF020435B6E8B434FF02044636613E0A8
:10507000B0F5807F08D1474B1B1D1B688B434FF059
:105080002044C4F8843007E0424B24331B688B4330
:105090004FF02044C4F8A43010BD10B502460020E3
:1050A0000023102A03D14FF02044636E09E0B2F5CB
:1050B000807F03D1374C241D236802E0354C243413
:1050C000236803EA01040CB1012000E0002010BDB8
:1050D000102807D14FF02042526E8A434FF02043F0
:1050E0005A6613E0B0F5807F08D12A4A121D126873
:1050F0008A434FF02043C3F8842007E0254A243236
:1051000012688A434FF02043C3F8A420704770B55B
:1051100002460020002300240025102A03D14FF06E
:105120002046736E09E0B2F5807F03D1194E361D1B
:10513000336802E0174E2436336803EA010403EAB9
:10514000D10514B10DB1012000E0002070BD102880
:1051500008D14FF02042526E22EAD1024FF0204394
:105160005A6615E0B0F5807F09D10A4A121D12680F
:1051700022EAD1024FF02043C3F8842008E0054A18
:105180002432126822EAD1024FF02043C3F8A4204F
:1051900070470000800000A0BFFF0F0010B504465C
:1051A000CC48844208D10121042000F02DFB0021CD
:1051B000042000F029FB46E0C748844208D10121C1
:1051C000082000F021FB0021082000F01DFB3AE040
:1051D000C248844208D10121102000F015FB0021B3
:1051E000102000F011FB2EE0BD48844208D10121BF
:1051F000202000F009FB0021202000F005FB22E028
:10520000B848844208D10121402000F0FDFA002175
:10521000402000F0F9FA16E0B348844208D1012199
:10522000802000F0F1FA0021802000F0EDFA0AE081
:10523000AE48844207D10121801500F0E5FA002133
:10524000A01500F0E1FA10BD10B50121084600F0EC
:10525000DBFA0021012000F0D7FA10BD2DE9F04162
:10526000024600250026002000230024002791F894
:1052700003C00CF00F0591F803C00CF0100CBCF14A
:10528000000F03D091F802C04CEA050591F800C068
:10529000BCF1000F31D0146800202BE04FF0010C5E
:1052A0000CFA00F3B1F800C00CEA03069E4220D1CC
:1052B00083004FF00F0C0CFA03F7BC4305FA03FC14
:1052C0004CEA040491F803C0BCF1280F06D14FF05A
:1052D000010C0CFA00FCC2F814C00AE091F803C0FB
:1052E000BCF1480F05D14FF0010C0CFA00FCC2F8DC
:1052F00010C0401C0828D1D31460B1F800C0BCF124
:10530000FF0F34DD546800202EE000F1080C4FF050
:10531000010808FA0CF3B1F800C00CEA03069E423B
:1053200021D183004FF00F0C0CFA03F7BC4305FAB0
:1053300003FC4CEA040491F803C0BCF1280F05D12A
:1053400000F1080C08FA0CF8C2F8148091F803C0B8
:10535000BCF1480F07D100F1080C4FF0010808FA22
:105360000CF8C2F81080401C0828CED35460BDE869
:10537000F0814FF6FF710180022181700421C1701C
:1053800070470246002093680B400BB1012000E0FB
:10539000002070470146886880B2704702460020AE
:1053A000D3680B400BB1012000E00020704701469C
:1053B000C86880B2704701617047416170470AB1A7
:1053C000016100E041617047C16070474FF4803275
:1053D0000A43826181618261826982697047024603
:1053E0000020434B18684FF68073184040EA0210C3
:1053F00008433F4B186070473E49C8617047F0B59D
:105400000A46002300240021002500F00046B6F1E2
:10541000004F02D1364EF16901E0354E7168C0F39C
:10542000034583B200F44016B6F5401F08D121F0C1
:1054300070612F4E766826F070662D4F7E6012E008
:1054400000F48016B6F5801F06D1032606FA05F48F
:10545000A14341F0706106E0460D360103FA06F6FD
:10546000B14341F0706122B1460D360103FA06F6F0
:10547000314300F00046B6F1004F02D11C4EF161FD
:1054800001E01B4E7160F0BD30B500228B071C0F90
:105490000F2303FA04F2164B08338C1053F8243010
:1054A0009343134C08348D1044F8253023468C1058
:1054B00053F824308C07240F00FA04F423430C4CD7
:1054C00008348D1044F8253030BD0A49DC310860BD
:1054D0007047000000080140000C0140001001402E
:1054E0000014014000180140001C01400020014050
:1054F0000000014000002042DF48006840F0010049
:10550000DD49086008464068DC490840DA494860DF
:1055100008460068DA490840D7490860084600682C
:1055200020F4802008600846406820F4FE004860AF
:105530004FF41F0088607047CF49096821F480311B
:10554000CD4A11601146096821F480211160B0F53F
:10555000803F03D0B0F5802F0ED106E0C649096820
:1055600041F48031C44A116007E0C349096841F43D
:10557000A021C14A116000E000BF00BF704710B514
:1055800001460022002300204A11012A02D1BA4C10
:10559000236806E0022A02D1B74C236A01E0B64C28
:1055A000636A01F01F02012494401C400CB10120E9
:1055B00000E0002010BD38B5002000900024002538
:1055C00000BF3120FFF7DBFF05460098401C00902C
:1055D0000098B0F5A06F01D0002DF2D03120FFF778
:1055E000CEFF08B1012400E00024204638BD01466A
:1055F0000020A14A106820F0F80040EAC1001060C5
:105600007047A04908607047024600209A4B5868CE
:1056100020F47C1042EA01031843974B586070470E
:1056200098490866704701460020934A506820F068
:1056300003000843506070478F48406800F00C003A
:105640007047014600208C4A506820F0F000084363
:105650005060704701460020874A506820F4E0609F
:1056600008435060704701460020834A506820F488
:10567000605040EAC1005060704729B17E4A527ABA
:1056800002437D4B5A7204E07B4A527A82437A4B42
:105690005A7270477B49D831086070470146002034
:1056A000754A506820F4404008435060704700211C
:1056B000714A20321170704A82F82010012802D0FD
:1056C00004280AD104E001216B4A2032117005E060
:1056D0000521694A2032117000E000BF00BF704709
:1056E0006949086070476449096A0143624A116266
:1056F0007047654944390860704730B50021002281
:10570000002400235C4D6D6805F00C0121B10429D3
:1057100005D0082923D105E05C4D056022E05B4DF2
:1057200005601FE0544D6D6805F47012524D6D68B0
:1057300005F48034022505EB92421CB9544D5543C3
:1057400005600BE04C4D6D6805F400351DB1504D02
:105750005543056002E04D4D5543056002E04B4D59
:10576000056000BF00BF444D6D6805F0F0010909F8
:10577000484D6B5C0568DD4045603F4D6D6805F444
:10578000E061090A434D6B5C4568DD4085603A4D38
:105790006D6805F46051C90A3E4D6B5C4568DD409B
:1057A000C560354D6D6805F44041890B3A4D6B5C21
:1057B000C568B5FBF3F5056130BD29B12E4A5269C4
:1057C00002432D4B5A6104E02B4A526982432A4B13
:1057D0005A61704729B1284A92690243264B9A615F
:1057E00004E0254A92698243234B9A61704729B1AC
:1057F000214AD2690243204BDA6104E01E4AD26991
:1058000082431D4BDA61704729B11B4AD2680243BB
:10581000194BDA6004E0184AD2688243164BDA600A
:10582000704729B1144A12690243134B1A6104E00C
:10583000114A12698243104B1A617047124940396C
:10584000086070470F49C86470470B49C8717047BA
:105850000948406A40F08070074948627047014635
:105860000020054A92680A400AB1012000E00020A9
:105870007047014988727047001002400000FFF82D
:10588000FFFFF6FE000042428004424200127A000E
:1058900000093D00700100208001002010B5044681
:1058A000BE48844208D101218014FFF7ADFF0021DA
:1058B000A014FFF7A9FF16E0B948844208D10121DE
:1058C0000014FFF7AEFF00212014FFF7AAFF0AE043
:1058D000B448844207D10121C013FFF7A2FF002181
:1058E000E013FFF79EFF10BD10B50022028802F4FE
:1058F00041520B884C8823438C882343CC88234314
:105900000C8923434C8923438C892343CC8923432B
:105910001A430280838B4FF2FF74234083830B8AE8
:10592000038210BD2DE9F04F85B005460C464FF0BF
:10593000000902274FF000084FF0010B0026B24685
:10594000A88B4FF240010840A88302202884B5F8B4
:105950001C90A068022801D100BF38E0A08810B9CF
:105960004FF0010B01E04FF0020B8D48854200D152
:1059700000E000BF6846FFF7C0FEDDF800A0E08849
:10598000B0F5007F0AD14FEA1A2000EB80004000FA
:10599000A168B0FBF1F0401D86B20BE04FEA4B105E
:1059A000BAFBF0F000EB80004000A168B0FBF1F022
:1059B000401D86B20A20B6FBF0F606F00108A6EB01
:1059C0000800C0F34F074FF6FF7000EA0828022FC7
:1059D00001DBFF2F02DD02274FF00008E08840EADC
:1059E000080038432884A088A189084361880843B7
:1059F0002188084340F4006040EA0909A5F81C909A
:105A000005B0BDE8F08F0021018041808180C18018
:105A1000018141818181C18107210182704700217B
:105A2000018041808180C1800221816000218181CB
:105A3000704721B1028842F04002028004E00288EF
:105A40004FF6BF731A400280704721B1828B42F437
:105A50008062828304E0828B4FF6FF331A40828398
:105A6000704730B5002400230C110125A540ABB2CE
:105A70001AB185881D43858002E085889D43858015
:105A800030BD1AB183880B43838002E083888B4347
:105A900083807047818170470146888970474FF63F
:105AA000FF62914204D0028842F48072028004E0D6
:105AB00002884FF6FF631A400280704721B1828846
:105AC00042F00402828004E082884FF6FB731A40A1
:105AD0008280704702884FF2FF731A40028002886A
